:1001E70008130A0A0A0A0A0A0A0A080B000000008A
:1001F70000000000082400000000000000000308C1
:0302070023595523
:10038B00E520451F701CF51F7520011201258F21DB
:10039B00E521651EFF5521F51DE521F45FF523854C
:0303AB00211E22EE
:10022900E51C451B703AF51B751C01FB7A00790822
:1002390012035AE508C4540FF513E508540FF514D1
:1002490075150BE509C4540FF516E509540FF51793
:1002590075180BE50AC4540FF519E50A540FF51A78
:010269002272
:0100030022DA
:10040100538E7F5389F0758A18758CFCC28DD28CFE
:05041100D2A9D2AF22C8
:03000B0002009A56
:10009A00C0E0C0F0C083C082C0D075D000C000C02C
:1000AA0001C002C003C004C005C006C0070520E5A0
:1000BA00207002051F640A451F7004F51FF520050C
:1000CA001CE51C7002051B6464451B7004F51BF5D6
:1000DA001C0522E52264087002F52274132522F811
:1000EA00E6FD7C00740B2522F8E6FB7A00AF2212AB
:1000FA00032074242522F8E6FD7C00AF221202E5D3
:10010A00D007D006D005D004D003D002D001D00049
:0B011A00D0D0D082D083D0F0D0E032F3
:1003E7001203AE1204017B007A00790812026A1226
:0A03F700038B12022912000380F5A7
:1003AE007580FFE5A0541F4480F5A053A01FE4F50F
:0D03BE0080E5A0541F44A0F5A053A01F220D
:06020A000143000144FF66
:1002E500ED4C600FA8077401088002C333D8FC42A7
:1002F50043800EA8077401088002C333D8FCF4526A
:1003050043E54365446013E543F4F580E5A0541FD8
:0A0315004480F5A053A01F85434467
:01031F0022BB
:100210000C2CC0F9A4B0999282F88090FFBF0838E6
:080220000102040810204080D7
:100320007580FFE5A0541F44E0F5A053A01F74386A
:100330002FF8E6F580E5A0541F44C0F5A053A01F98
:10034000742C2DF8E6F580EB4A600353807FE5A01E
:0A035000541F44E0F5A053A01F2243
:10012500E4FFD2B4D2B5D2C2C2C420B3027F042048
:10013500B2027F0520B1027F0620B0027F07D2B44C
:10014500D2B5C2C2D2C420B3027F0820B2027F0951
:1001550020B1027F0A20B0027F0BD2B4C2B5D2C251
:10016500D2C420B3027F0C20B2027F0D20B1027FE2
:100175000E20B0027F0FC2B4D2B5D2C2D2C420B312
:10018500027F1020B2027F1120B1027F1220B0023F
:020195007F13D6
:010197002245
:1003CB00E4FEEEC3940874809480500FC297EF1331
:0B03DB0092A3EFC313FFD2970E80E740
:0103E60022F4
:10041600C29300C29700D293001203CBAF0512031A
:04042600CBC2932290
:1002A800E4FDC29300C29700D293001203CBE4FF8F
:1002B800EFC39408748094805011C297EDC313FD66
:1002C80030A303430580D2970F80E5C29300C297FD
:0C02D80000D29700C2A300D2A300AF0523
:0102E40022F7
:06026A008B408A4189422D
:10027000E4FD7F8E120416E4FCECC39403748094B6
:1002800080501EEC25E0FFC374849FFFAB40AA4161
:10029000A9428C82758300120198FD1204160C800D
:0802A000D87D807F8E02041658
:06035A008B408A4189423C
:10036000E4FCECC3940374809480501EEC25E0FF01
:10037000C374859FFF1202A8AB40AA41A9428C8298
:0A038000758300EF1201C50C80D850
:01038A002250
:0300000002000EED
:0C000E00787FE4F6D8FD758144020055AF
:10019800BB010CE58229F582E5833AF583E022501C
:1001A80006E92582F8E622BBFE06E92582F8E22266
:0D01B800E58229F582E5833AF583E4932280
:1001C500F8BB010DE58229F582E5833AF583E8F070
:1001D500225006E92582C8F622BBFE05E92582C81C
:0201E500F22204
:10001A000203E7E493A3F8E493A34003F68001F212
:10002A0008DFF48029E493A3F85407240CC8C333E7
:10003A00C4540F4420C8834004F456800146F6DFB6
:10004A00E4800B01020408102040809001E7E47E5E
:10005A00019360BCA3FF543F30E509541FFEE493AB
:10006A00A360010ECF54C025E060A840B8E493A372
:10007A00FAE493A3F8E493A3C8C582C8CAC583CA9D
:10008A00F0A3C8C582C8CAC583CADFE9DEE780BE55
:0102280000D5
:00000001FF
