:0300000002001EDD
:0C001E00787FE4F6D8FD758120020065B3
:100227008808010001000100010088000A0A0A0A83
:070237000A0A0A0A010D008A
:1003030078087401F2E408F20804F2E408F208043D
:10031300F2E408F20804F2E408F27BFE7A007908BA
:030323000200AA2B
:1003260078007401F20804F208742FF2087404F2DB
:0D0336000804F20804F20804F20804F222A0
:010369002271
:03001B0002012CB3
:10012C00C0E0C0F0C083C082C0D075D000C000C099
:10013C0001C002C003C004C005C006C007780C068D
:10014C000806E65407F6E62400F8E2FED39414748D
:10015C00809480780DE6FF4008EE24D4FDD2038015
:10016C00072400F8E2FDC203120192D007D006D09A
:10017C0005D004D003D002D001D000D0D0D082D092
:06018C0083D0F0D0E03248
:10034300538EBF53890F758B18758DFCC28FD28E58
:05035300D2ABD2AF2285
:100358001202DC12034312030312032612036980FC
:01036800F59F
:0D023E008B10C0F9A4B0999282F88090FF57
:100192007580FFE5A0541FFE4306E08EA0E5A05443
:1001A2001FFEF5A0A8077401088002C333D8FCF52E
:1001B20080E5A0541FFE4306C08EA0E5A0541FF5A3
:1001C200A074102DF8E2F58030030353807FE5A080
:0E01D200541FFE4306E08EA0E5A0541FF5A0CA
:0101E00022FC
:0C024B00010800010AFF010900010BFF7F
:1000AA00E47808F69000011201FA25E0FF1201E156
:1000BA004FFF9000021201FA25E025E04FFF900061
:1000CA00031201FA33333354F84FFF90000412013C
:1000DA00FAC454F04FFF9000051201FAC43354E0F9
:1000EA004FFF9000061201FAC4333354C04FFF90F9
:1000FA0000071201FAC433333354804FFF7808F6ED
:10010A00780AE66F601B7808E6FFF4F580E5A054EC
:10011A001FFE4306808EA0E5A0541FF5A0780AA60C
:01012A0007CD
:01012B0022B1
:100003007580FFE5A0541FFF4307808FA0E5A05430
:070013001FF5A0E4780AF6D6
:01001A0022C3
:100258007809E63000054440F6800354BFF6780973
:10026800E6FF780B6660148F80E5A0541FFE4306F6
:0B027800A08EA0E5A0541FF5A0A60773
:010283002258
:100284007809E63001054420F6800354DFF6780946
:10029400E6FF780B6660148F80E5A0541FFE4306CA
:0B02A400A08EA0E5A0541FF5A0A60747
:0102AF00222C
:1002B0007809E63002054410F6800354EFF6780919
:1002C000E6FF780B6660148F80E5A0541FFE43069E
:0B02D000A08EA0E5A0541FF5A0A6071B
:0102DB002200
:1002DC007580FFE5A0541FFF4307808FA0E5A05455
:1002EC001FF5A0E4F580E5A0541FFF4307A08FA0E5
:0602FC00E5A0541FF5A06F
:0103020022D8
:10002A00020358E493A3F8E493A34003F68001F291
:10003A0008DFF48029E493A3F85407240CC8C333D7
:10004A00C4540F4420C8834004F456800146F6DFA6
:10005A00E4800B0102040810204080900227E47E0D
:10006A00019360BCA3FF543F30E509541FFEE4939B
:10007A00A360010ECF54C025E060A840B8E493A362
:10008A00FAE493A3F8E493A3C8C582C8CAC583CA8D
:10009A00F0A3C8C582C8CAC583CADFE9DEE780BE45
:0102570000A6
:1001E100BB010689828A83E0225002E722BBFE021C
:0901F100E32289828A83E493224F
:1001FA00BB010CE58229F582E5833AF583E02250BA
:10020A0006E92582F8E622BBFE06E92582F8E22203
:0D021A00E58229F582E5833AF583E493221D
:00000001FF
