:03000000020259A0
:0C025900787FE4F6D8FD7581200202A039
:1005BF008808010001000100010088000A0A0A0AE8
:0C05CF000A0A0A0A011600030B0B0C0DAF
:1006AE007814E6C3940A74809480401DE4F6120216
:1006BE00E57815EFF67813E66FFE5F18F6EFF45E49
:0A06CE007819F67815E67813F62285
:03001B000203ECF1
:1003EC00C0E0C0F0C083C082C0D075D000C000C0D7
:1003FC0001C002C003C004C005C006C007781106C6
:10040C00781406780E06781006E618700106781631
:10041C0006E65407F6E62400F8E2FED39414748042
:10042C0094807816E6FF4008EE24D4FDD2018007B4
:10043C002400F8E2FDC2011204B7D007D006D005A3
:10044C00D004D003D002D001D000D0D0D082D08341
:05045C00D0F0D0E032F9
:0F08FF007811E6C39414748094804002E4F622CA
:1007C10078087401F2E408F20804F2E408F208047B
:1007D100F2E408F20804F2E408F27BFE7A007908F8
:0307E10002036AA6
:1008AF00780EE6C3946474809480400AE4F6FB7A71
:0708BF0000790B120506226F
:1006D800C37810E6942C18E69401401BE4F608F65B
:1006E800120584E4FBFA7920784112001E12016297
:0806F8007817A60608A60722E8
:1008C600538EBF53890F758B18758DFCC28FD28ED0
:0508D600D2ABD2AF22FD
:100807001207007B007A00790B1204611208C612E6
:1008170006AE1207C11208FF1208AF1206D880EF02
:1002E500E4FFD2C4D2C2D2B520B00122C2C4D2C268
:1002F500D2B520B0027F0720B1027F0620B2027F6F
:100305000520B3027F04D2C4D2C2D2B520B0037F88
:100315000022D2C4C2C2D2B520B0027F0B20B102E6
:100325007F0A20B20620B3037F592220B2027F093B
:1003350020B3027F08D2C4D2C2D2B520B0037F0059
:1003450022D2C4D2C2C2B520B0027F0F20B1027F33
:100355000E20B2027F0D20B3027F0CD2C4D2C2D2CE
:04036500B543B0EFFD
:010369002271
:0D05DB008B10C0F9A4B0999282F88090FFB7
:1004B7007580FFE5A0541FFE4306E08EA0E5A0541B
:1004C7001FFEF5A0A8077401088002C333D8FCF506
:1004D70080E5A0541FFE4306C08EA0E5A0541FF57B
:1004E700A074102DF8E2F58030010353807FE5A05A
:0E04F700541FFE4306E08EA0E5A0541FF5A0A2
:0105050022D3
:0C05E800011A00011CFF011B00011DFF97
:10036A00E4781AF69000011201FC25E0FF1201E37D
:10037A004FFF9000021201FC25E025E04FFF90009C
:10038A00031201FC33333354F84FFF900004120177
:10039A00FCC454F04FFF9000051201FCC43354E032
:1003AA004FFF9000061201FCC4333354C04FFF9034
:1003BA0000071201FCC433333354804FFF781AF616
:1003CA00781CE66F601B781AE6FFF4F580E5A05406
:1003DA001FFE4306808EA0E5A0541FF5A0781CA638
:0103EA00070B
:0103EB0022EF
:100003007580FFE5A0541FFF4307808FA0E5A05430
:070013001FF5A0E4781CF6C4
:01001A0022C3
:10062A00781BE63002054440F6800354BFF6781B77
:10063A00E6FF781D6660148F80E5A0541FFE43060E
:0B064A00A08EA0E5A0541FF5A0A6079D
:010655002282
:10065600781BE63003054420F6800354DFF6781B4A
:10066600E6FF781D6660148F80E5A0541FFE4306E2
:0B067600A08EA0E5A0541FF5A0A60771
:010681002256
:10068200781BE63004054410F6800354EFF6781B1D
:10069200E6FF781D6660148F80E5A0541FFE4306B6
:0B06A200A08EA0E5A0541FF5A0A60745
:0106AD00222A
:100700007580FFE5A0541FFF4307808FA0E5A0542C
:100710001FF5A0E4F580E5A0541FFF4307A08FA0BC
:06072000E5A0541FF5A046
:0107260022B0
:10084500E4FEEEC3940874809480500FC297EF13B2
:0B08550092A3EFC313FFD2970E80E7C1
:010860002275
:1008DB00C29300C29700D29300120845AF051208CD
:0408EB0045C293224D
:10054700E4FDC29300C29700D29300120845E4FF6E
:10055700EFC39408748094805011C297EDC313FDC4
:1005670030A303430580D2970F80E5C29300C2975B
:0C05770000D29700C2A300D2A300AF0581
:010583002255
:060461008B088A09890ADC
:10046700E4FD7F8E1208DB7D807F801208DBE4FCD1
:10047700ECC3940374809480502FEC25E0FFC37481
:10048700849FFFAB08AA09A90A8C82758300120111
:10049700FCFE75F00A84C454F0FDEE75F00A84ED95
:1004A70025F0FD1208DB0C80C77D807F8E0208DBFC
:060506008B088A09890A36
:10050C00C2AFE4FCECC3940374809480502AEC25B5
:10051C00E0FFC374859FFF120547EFC4540F75F0BD
:10052C000AA4FEEF540F2EAB08AA09A90A8C8275F7
:0A053C0083001202290C80CCD2AF1C
:010546002292
:040827007F057E00CB
:10082B00EF1FAA0670011E4A600FE4FDEDC3940C86
:09083B007480948050EA0D80F3F2
:010844002291
:02072700A90720
:10072900E4FBEBC39408748094805012C294E913DB
:100739009294120827D294E9C313F90B80E47F0538
:050749007E0002082BF8
:1007E400E4FBEBC39408748094805014C294ECC36B
:1007F40013FCD2943094034304801208270B80E244
:02080400AF043F
:0108060022CF
:10074E00C200D2947F0C7E0012082BC2947F507E82
:10075E000012082BD2947F0A7E0012082BA29492CC
:06076E0000120827A200A2
:010774002262
:1005840012074E7FCC1207277F441207277FC87EAD
:100594000012082B12074E7FCC1207277FBE1207CA
:1005A400271207E4A9071207E4EFAD01FCEC1201DE
:0B05B40029E4FBFA7980783D02001E6C
:04087D00D2A07F0581
:10088100000000000000000000000000000000AEB9
:06089100071FEE70EB22D0
:0F090E00D2A112087DC2A17F05120881C2A022CA
:0C091D00C2A112087DD2A17F0502088152
:0205F500AD0750
:1005F700E4FCECC39408748094805024C2A07F0567
:10060700120881ED30E704D2A18002C2A17F051252
:100617000881D2A0ED25E0FD7F051208810C80D26C
:02062700C2A06F
:0106290022AE
:10077500E4FCECC3940874809480501712087DED56
:1007850025E0FD30A103430501C2A07F05120881C4
:050795000C80DFAF0540
:01079A00223C
:0A086100AB0712090E7F901205F597
:10086B0012087DA2A1E433FDC2A07F05120881AF5F
:01087B000577
:01087C002259
:10089700C2A0EF24FF92A17F0512088112087DC232
:0808A700A0D2A17F0502088127
:10079B00120861AF031205F512086B12090E7F9157
:1007AB001205F512086B120775AD077F011208973A
:0507BB0012091DAF054D
:0107C0002216
:1008EF001208617F411205F512086BAF030205F57F
:10001E00EC4D6011E8497017ED33EC3304600DE4DC
:10002E00FCFFFEFD22E933E8330470F80201CE1224
:10003E00019958046009E4CC248150062850090225
:10004E0001D82840030201D5C0E0EB4A7044B980C4
:10005E0006D0E0FB0201C4EF4E701CBD8008EBFF22
:10006E00EAFEE9FD80EBE98DF0A4FEE5F002010762
:10007E00E9CDF9EAFEEBFFEF89F0A4FCE5F0CE89BD
:10008E00F0A42EFFE435F0CD89F0A42DFEE435F07A
:10009E008067EF4E7005BD80D780C3EF8BF0A4ACA8
:1000AE00F0EE8BF0A42CFCE435F0F8EF8AF0A42CE3
:1000BE00E5F038FCE433CB8DF0A42CFCE5F03BF8F6
:1000CE00EE8AF0A42CFCE5F038F8E433CF89F0A4E6
:1000DE002CFCE5F038CF3400CE89F0A42FFFE5F0EC
:1000EE003EFEE433C98DF0A42EFEE5F039CD8AF044
:1000FE00A42FFFE5F03EFEE43DFD33D0E0FB5007BC
:10010E000BBB000F0201D8EC2CFCEF33FFEE33FEDD
:06011E00ED33FD0201B00B
:1001240075F020800E75F010800575F0087D007E56
:10013400007F003392D530D50312024BEC334010CC
:10014400EF33FFEE33FEED33FDEC33FCD5F0ED225F
:0E015400E5F0247EA2D513CC92E7CDCEFF229B
:10016200EDD2E7CD33EC3392D524814006E4FFFE95
:10017200FDFC22FCE4CFCECDCC24E0501174FF80F4
:10018200EDC3CC13CCCD13CDCE13CECF13CF047091
:07019200F030D5DE02024B44
:10019900E9D2E7C933E833F892D5EDD2E7CD33ECAC
:0701A90033FC5002B2D52225
:1001B000EC30E7100FBF000C0EBE00080DBD0004B0
:1001C0000BEB6014A2D5EB13FCED92E7FD2274FF5C
:1001D000FCFDFEFF22E480F8A2D574FF13FC7D80B5
:0301E000E480EFC9
:10026500020807E493A3F8E493A34003F68001F2A0
:1002750008DFF48029E493A3F85407240CC8C3339A
:10028500C4540F4420C8834004F456800146F6DF69
:10029500E4800B01020408102040809005BFE47E35
:1002A500019360BCA3FF543F30E509541FFEE4935E
:1002B500A360010ECF54C025E060A840B8E493A325
:1002C500FAE493A3F8E493A3C8C582C8CAC583CA50
:1002D500F0A3C8C582C8CAC583CADFE9DEE780BE08
:0105F4000006
:1001E300BB010689828A83E0225002E722BBFE021A
:0901F300E32289828A83E493224D
:1001FC00BB010CE58229F582E5833AF583E02250B8
:10020C0006E92582F8E622BBFE06E92582F8E22201
:0D021C00E58229F582E5833AF583E493221B
:10022900F8BB010DE58229F582E5833AF583E8F00B
:10023900225006E92582C8F622BBFE05E92582C8B7
:02024900F2229F
:0E024B00C3E49FFFE49EFEE49DFDE49CFC22C4
:00000001FF
