:030000000214A146
:0C14A100787FE4F6D8FD7581B70214E8EE
:101949004B65795F446F776E3A202562750A0025E9
:101959007300282562752C25627529000D0A492016
:101969004765742078203D202562752C2079203D1B
:10197900202562750D0A000D0A4552524F520D0A73
:01198900005D
:1013ED008822010001000100010088000A0A0A0A92
:1013FD000A0A0A0A01AD0003440C172D881A0102CE
:10140D000304050607088812000000000000000014
:10141D0001A3068A08000000000000000000002063
:10142D00584BFF1D440000000100000000FF177D18
:10143D000000000A00000000FF0FBD0000001400B6
:10144D00000000FF1E300000006400000000FF00DF
:10145D00030000012C00000000FF1A7B0000009625
:10146D0000000000FF1E390000007800000000FFA2
:0A147D0016340000000A0000000011
:10177D0012152D78ABEFF678A8E66FFE5FFD78A514
:10178D00F6EFF45E78B2F678ABE678A8F6EDFF7E6C
:10179D00006404700A78A306E675F00A84A6F0EFDB
:1017AD004E600E7BFF7A19794978A5E6F527120868
:1017BD006178A5E6640570090806E675F00684A64D
:0217CD00F02208
:100FBD0078A6E614605914700302105C14700302D5
:100FCD0010931470030210BD147003021222240535
:100FDD0060030212387844E6FF75F00A847800F257
:100FED00EF75F00A8408E5F0F2087436F27845E6FC
:100FFD00FF75F00A847803F2EF75F00A8408E5F0C6
:10100D00F2087436F27846E6FF75F00A84806A7845
:10101D00B0E6FA08E6FB7C007D64FFAE021205B077
:10102D007800EFF27C007D0AAF03AE021205B07CB2
:10103D00007D0A1205B0ED242C7801F278B0E6FEA1
:10104D0008E6FF7C007D0A1205B07802ED805A7823
:10105D00A9E6FF75F00A84242C7800F2EF75F00AEA
:10106D008408E5F0F208740AF208F208F208F27842
:10107D00AAE6FF75F00A84242C7806F2EF75F00AC3
:10108D008408E5F0F22278ACE6FF75F06484780010
:10109D00F2EF75F00A8475F00A8408E5F0F278AC89
:1010AD00E675F00A847802E5F0F208740A02122F50
:1010BD007847E6FE08E6FFE4FCFD7B807A9679989A
:1010CD00F8C3120632501B7847E6FE08E6FFE4FC33
:1010DD00FDF8121905E47B0AFAF9F8121905AF03A8
:1010ED0080027F0A7800EFF27847E6FE08E6FFE41B
:1010FD00FCFD7B407A42790FF8C3120632501B7803
:10110D0047E6FE08E6FFE4FCFDF8121905E47B0A4C
:10111D00FAF9F8121905AF0380027F0A7801EFF290
:10112D007847E6FE08E6FFE4FCFD7BA07A867901B0
:10113D00F8C3120632501B7847E6FE08E6FFE4FCC2
:10114D00FDF8121905E47B0AFAF9F8121905AF0337
:10115D0080027F0A7802EFF27847E6FE08E6FFD3B9
:10116D009410EE942740127C277D101205B07C0060
:10117D007D0A1205B0AF0580027F0A7803EFF27881
:10118D0047E6FE08E6FFD394E8EE940340127C0395
:10119D007DE81205B07C007D0A1205B0AF05800216
:1011AD007F0A7804EFF27847E6FE08E6FFD39464F1
:1011BD00EE940040127C007D641205B07C007D0A27
:1011CD001205B0AF0580027F0A7805EFF27847E689
:1011DD00FE08E6FFD3940AEE940040127C007D0ACF
:1011ED001205B07C007D0A1205B0AF0580027F0AA2
:1011FD007806EFF27847E6FE08E6FFD39401EE9409
:10120D0000400B7C007D0A1205B0AF0580027F0AFD
:10121D007807EFF22278A3E67800F208740AF20854
:0C122D00F208F208F208F208F208F222BF
:101D440078227401F2E408F20804F2E408F20804C8
:0B1D5400F2E408F20804F2E408F222B6
:091E30007B007A00794402198A52
:10000300121A08E4FBFA7920784112002612016AD9
:0800130078B0A60608A607223A
:101A7B007F41121C88EF75F00AA4FFAEF07C007D4D
:101A8B00331205B078A9A6077F43121C88EF75F0B7
:101A9B000AA4FFAEF07C007D331205B078AAA6072E
:051AAB007F99021DA35C
:081E3900121A4378ACA607223F
:1016340078A4E6607978AEE6C3940A748094804016
:101644006DE478A7F678AEF67527FE75280075293F
:10165400087BFF7A1979581208617527FF752819D4
:1016640075295B752A00752B00752C22752D007564
:101674002E00752F237BFE7A007908120CECEF64A0
:10168400024E7BFF700C7A19796585222785232801
:1016940080047A19798012086178A4E6FF7E007DBF
:0E16A400007BFE7A0079081206EDE478A4F6C9
:0116B2002215
:101D8E00538EBF53890F758B18758DFCC28FD28EF3
:051D9E00D2ABD2AF2220
:101DCC00538E7F5389F0438905E4F58AF58CC28DD7
:031DDC00D28C2284
:03001B0002131FAE
:10131F00C0E0C0F0C083C082C0D075D000C000C094
:10132F0001C002C003C004C005C006C00778B412D4
:10133F000673EF2401FFE43EFEE43DFDE43CFC7840
:10134F00B412068C78AD06E65407F6E62400F8E2F0
:10135F00FED394147480948078ADE6FF4008EE2499
:10136F00D4FDD20B80072400F8E2FDC20B12181F28
:10137F0078490806E618700106FF8606BE031BBFF4
:10138F00E81878497600087600AF8CEFAD8A784779
:10139F00F6ED08F6758A00758C0078AF06E675F0E5
:1013AF000A84A6F079AFE7C378A396500B7BFE7A39
:1013BF000079221215B28003121D5F78A7E6600331
:1013CF0078AE06D007D006D005D004D003D002D017
:0E13DF0001D000D0D0D082D083D0F0D0E03248
:03002300021AE5D9
:101AE500C0E0C0D075D000C00030981E78A7760140
:101AF50078AE760078A4E6C3940A74809480500882
:101B0500E6062408F8E599F2C298D000D0D0D0E0D6
:011B1500329D
:05001E0078B376082212
:0B16B300E4F522E522C378B3965068EE
:1016BE00081206738F268E258D248C23E52275F055
:1016CE000BA42452F8120673E52275F00BA4244ED7
:1016DE00F812067FEB2FFFEA3EFEE93DFDE83CFCEB
:1016EE00AB26AA25A924A823C31206484026AF2656
:1016FE00AE25AD24AC23E52275F00BA42452F812CE
:10170E00068CE52275F00BA4244BF808E6FA08E6E1
:04171E00F91206E7CF
:04172200052280908C
:0117260022A0
:1017CF00121BEC12001E7B007A0079441217277B44
:1017DF00FE7A007912752600752708E4FD12186E3F
:1017EF007BFE7A00791A752600752708E4FD12181A
:1017FF00BD7BFE7A007912752600752708E4FD126D
:10180F00186E121DCC121D77121D8E1216B380FB8F
:10152D00E4FFD2C4D2C2D2B520B00122C2C4D2C20D
:10153D00D2B520B0027F0720B1027F0620B2027F14
:10154D000520B3027F04D2C4D2C2D2B520B0037F2E
:10155D000022D2C4C2C2D2B520B0027F0B20B1028C
:10156D007F0A20B20620B3037F592220B2027F09E1
:10157D0020B3027F08D2C4D2C2D2B520B0037F00FF
:10158D0022D2C4D2C2C2B520B0027F0F20B1027FD9
:10159D000E20B2027F0D20B3027F0CD2C4D2C2D274
:0415AD00B543B0EFA3
:0115B1002217
:0D1487008B2AC0F9A4B0999282F88090FFE2
:10181F007580FFE5A0541FFE4306E08EA0E5A0549F
:10182F001FFEF5A0A8077401088002C333D8FCF58A
:10183F0080E5A0541FFE4306C08EA0E5A0541FF5FF
:10184F00A0742A2DF8E2F580300B0353807FE5A0BA
:0E185F00541FFE4306E08EA0E5A0541FF5A026
:01186D002258
:0C149400010900010BFF010A00010CFF20
:1015B200E47809F690000112054F25E0FF12053686
:1015C2004FFF90000212054F25E025E04FFF9000EB
:1015D2000312054F33333354F84FFF9000041205C2
:1015E2004FC454F04FFF90000512054FC43354E02E
:1015F2004FFF90000612054FC4333354C04FFF9083
:10160200000712054FC433333354804FFF7809F675
:10161200780BE66F601B7809E6FFF4F580E5A054CD
:101622001FFE4306808EA0E5A0541FF5A0780BA6EE
:0116320007B0
:011633002294
:101D5F007580FFE5A0541FFF4307808FA0E5A054B7
:071D6F001FF5A0E4780BF65C
:011D7600224A
:101B1600780AE6300C054440F6800354BFF6780A8E
:101B2600E6FF780C6660148F80E5A0541FFE43061E
:0B1B3600A08EA0E5A0541FF5A0A6079C
:011B41002281
:101B4200780AE6300D054420F6800354DFF6780A61
:101B5200E6FF780C6660148F80E5A0541FFE4306F2
:0B1B6200A08EA0E5A0541FF5A0A60770
:011B6D002255
:101B6E00780AE6300E054410F6800354EFF6780A34
:101B7E00E6FF780C6660148F80E5A0541FFE4306C6
:0B1B8E00A08EA0E5A0541FF5A0A60744
:011B99002229
:101BEC007580FFE5A0541FFF4307808FA0E5A0542C
:101BFC001FF5A0E4F580E5A0541FFF4307A08FA0BC
:061C0C00E5A0541FF5A045
:011C120022AF
:101D0C00E4FEEEC3940874809480500FC297EF13D6
:0B1D1C0092A3EFC313FFD2970E80E7E5
:011D27002299
:101DB800C29300C29700D29300121D0CAF05121DEA
:041DC8000CC2932294
:1019CB00E4FDC29300C29700D29300121D0CE4FFFA
:1019DB00EFC39408748094805011C297EDC313FD2C
:1019EB0030A303430580D2970F80E5C29300C297C3
:0C19FB0000D29700C2A300D2A300AF05E9
:011A070022BC
:061727008B228A238924B5
:10172D00E4FD7F8E121DB87D807F80121DB8E4FC14
:10173D00ECC3940374809480502FEC25E0FFC374A8
:10174D00849FFFAB22AA23A9248C827583001205E6
:10175D004FFE75F00A84C454F0FDEE75F00A84ED69
:10176D0025F0FD121DB80C80C77D807F8E021DB83F
:06198A008B228A23892450
:10199000C2AFE4FCECC3940374809480502AEC251D
:1019A000E0FFC374859FFF1219CBEFC4540F75F08D
:1019B0000AA4FEEF540F2EAB22AA23A9248C827511
:0A19C000830012058E0C80CCD2AF1C
:0119CA0022FA
:041CD0007F057E000E
:101CD400EF1FAA0670011E4A600FE4FDEDC3940CC9
:091CE4007480948050EA0D80F335
:011CED0022D4
:021C1300A9071F
:101C1500E4FBEBC39408748094805012C294E913DA
:101C25009294121CD0D294E9C313F90B80E47F057A
:051C35007E00021CD43A
:101CAD00E4FBEBC39408748094805014C294ECC38D
:101CBD0013FCD294309403430480121CD00B80E2A9
:021CCD00AF0462
:011CCF0022F2
:101C3A00C200D2947F0C7E00121CD4C2947F507EC4
:101C4A0000121CD4D2947F0A7E00121CD4A2949251
:061C5A0000121CD0A200E4
:011C60002261
:101A0800121C3A7FCC121C137F44121C137FC87E11
:101A180000121CD4121C3A7FCC121C137FBE121C5D
:101A280013121CADA907121CADEFAD01FCEC12019D
:0B1A380031E4FBFA7980783D020026C3
:101C61007FFF121C727FFF121C727FFF121C727F9A
:011C7100FF73
:101C7200000000000000000000000000000000AEB4
:061C8200071FEE70EB22CB
:101DDF00D2A1D2A07F05121C72C2A17F05121C7264
:031DEF00C2A0226D
:101E1600C2A1D2A07F05121C72D2A17F05021C723C
:021AB000AD0780
:101AB200E4FCECC39408748094805024C2A07F0597
:101AC200121C72ED30E704D2A18002C2A17F05127E
:101AD2001C72D2A0ED25E0FD7F05121C720C80D293
:021AE200C2A0A0
:011AE40022DF
:101B9A00E4FCECC3940874809480501BD2A07F05A7
:101BAA00121C72ED25E0FD30A103430501C2A07F9E
:091BBA0005121C720C80DBAF0562
:011BC30022FF
:101BC400AB05121DDF7FA0121AB0121BD6AF031291
:021BD4001AB045
:101BD600D2A07F05121C72A2A1E433FDC2A07F052C
:051BE600121C72AF05A6
:011BEB0022D7
:101D2800C2A0EF24FF92A17F05121C72D2A07F05EA
:0C1D3800121C72C2A0D2A17F05021C7216
:021C8800AB07A8
:101C8A00121DDF7F90121BCB121DDF7F91121AB03B
:101C9A00121BD6121B9AAD077F01121D28121E169F
:021CAA00AF0584
:011CAC002215
:101DA300AB07121DDF7F90121AB0121BD67F4112B0
:051DB3001BCB021E160F
:1018BD008B228A238924121BC4E5271527AE267097
:1018CD000215264E601FAB220524E524AA237002C3
:1018DD00052314F9120536FF121AB0121BD67FC854
:1018ED00121C7280D4121E16121C617FFF121C7204
:0818FD00121C617FFF021C7246
:10186E008B228A238924121BC4121DDF7FA1121A18
:10187E00B0121BD6C2AFE5271527AE26700215266D
:10188E004E6026121B9AAB220524E524AA23700271
:10189E00052314F9EF12057CE52745266004E4FFC5
:0F18AE0080027F01121D2880CD121E16D2AF229C
:051E4900007F03DFFE35
:011E4E002271
:101CEE00C2AFE4FEEEC3940874809480500DD2907F
:0D1CFE00121E49C290121E490E80E9D2AF9D
:011D0B0022B5
:101A4300E4F5D9F5E9F5F9121CEED2DE3091033055
:101A5300DFFAC2DE20DF1CAFF9EFFEADE9EDFFAC2C
:101A630006E41201317B967A43798B783C12002687
:071A730002016AC2DF7F00DF
:011A7A002249
:101D7700759850438E01538EFB75D7E675D6FF4392
:071D87008E10D2ACD2AF2296
:081E41008F993099FDC299222E
:10002600EC4D6011E8497017ED33EC3304600DE4D4
:10003600FCFFFEFD22E933E8330470F80201D61214
:1000460001A158046009E4CC248150062850090215
:1000560001E02840030201DDC0E0EB4A7044B980AC
:1000660006D0E0FB0201CCEF4E701CBD8008EBFF12
:10007600EAFEE9FD80EBE98DF0A4FEE5F002010F52
:10008600E9CDF9EAFEEBFFEF89F0A4FCE5F0CE89B5
:10009600F0A42EFFE435F0CD89F0A42DFEE435F072
:1000A6008067EF4E7005BD80D780C3EF8BF0A4ACA0
:1000B600F0EE8BF0A42CFCE435F0F8EF8AF0A42CDB
:1000C600E5F038FCE433CB8DF0A42CFCE5F03BF8EE
:1000D600EE8AF0A42CFCE5F038F8E433CF89F0A4DE
:1000E6002CFCE5F038CF3400CE89F0A42FFFE5F0E4
:1000F6003EFEE433C98DF0A42EFEE5F039CD8AF03C
:10010600A42FFFE5F03EFEE43DFD33D0E0FB5007B3
:100116000BBB000F0201E0EC2CFCEF33FFEE33FECD
:06012600ED33FD0201B8FB
:10012C0075F020800E75F010800575F0087D007E4E
:10013C00007F003392D530D503120624EC334010E7
:10014C00EF33FFEE33FEED33FDEC33FCD5F0ED2257
:0E015C00E5F0247EA2D513CC92E7CDCEFF2293
:10016A00EDD2E7CD33EC3392D524814006E4FFFE8D
:10017A00FDFC22FCE4CFCECDCC24E0501174FF80EC
:10018A00EDC3CC13CCCD13CDCE13CECF13CF047089
:07019A00F030D5DE0206245F
:1007FF00E53B2427F8E6053B2278243007027827CB
:10080F00E475F0011206A10205362000EB7F2ED20F
:10081F00008018EF540F2490D43440D4FF30040BD1
:10082F00EF24BFB41A0050032461FFE53C600215AA
:10083F003C053FE53F7002053E30070D7824E47517
:10084F00F0011206A1EF02057C021E417403D207CC
:10085F008003E4C207F53B8B248A258926E4F53C07
:10086F00F53EF53FE53C60077F2012083A80F575AD
:10087F003DFFC201C200C202C203C205C206C208C6
:10088F00120808FF700D3007057F0012084BAF3FAD
:10089F00AE3E22B4255FC2D5C204120808FF24D091
:1008AF00B40A00501A75F00A783C30D50508B6FF27
:1008BF000106C6A426F620D5047002D20380D924DF
:1008CF00CFB41A00EF5004C2E5D204020B38D201A4
:1008DF0080C6D20080C0D20280BCD2D580BAD205E9
:1008EF0080B47F2012083A2002077401B53C004003
:1008FF00F11207FFFF12083A020873D208D20680DE
:10090F00951207FFFB1207FFFA1207FFF94A4B7008
:10091F0006792F7A0C7BFF20022EE53C602A7E00A1
:10092F008E8275830012054F60060EEE653D70F0E6
:10093F00C2D5EBC0E0EAC0E0E9C0E0EE120B98D000
:10094F00E0F9D0E0FAD0E0FB120536FF60AAEBC069
:10095F00E0EAC0E0E9C0E012083AD0E02401F9D0A3
:10096F00E03400FAD0E0FBE53D0460DCD53DD980F2
:10097F0087D20280A2120B7B60F7E53D7001041253
:10098F0001EBA93D600DE53D600914F53D120C2208
:10099F00EF60F3EA30E702F404C3995077EAF425E5
:1009AF003D0430E701E404F53D800D120B7B60C17F
:1009BF00EA053D253D1201EBEA783AF630E701E40E
:1009CF00253D04D53D0420050114120B98E4C0E029
:1009DF00120C22783AE6601320E70714F612082269
:1009EF00802204F6D0E014C0E07F00120822E53D1B
:1009FF006007120819153D800B300503120819D036
:100A0F00E0020873D0E00480C5120B7B60A0E53DC7
:100A1F00041201EB783AEAF6E53D20050260010485
:050A2F002404120B98E5
:100A340074FF04C0E0120C22120822E53D200502D6
:100A44006003120819D0E0B53DE87F4512082C7800
:100A54003AE67F2B30E7047F2DF404C0E012083A15
:100A6400D0E075F00A84C0F0120823D0E012082305
:100A7400020873791080027908C206C2088008D27D
:100A8400D5790A8004790AC2D5E53D047002F53DA2
:100A9400E4FAFDFEFF1207FFFC7B08200113120796
:100AA400FFFD7B1030000A1207FFFE1207FFFF7BD9
:100AB40020EC3382D592D55013C3E43000069FFF57
:100AC400E49EFEE42001039DFDE49CFCE4CBF8C21B
:100AD40001EC700CCFCECDCCE824F8F870F380177D
:100AE400C3EF33FFEE33FEED33FDEC33FCEB33FBAE
:100AF400994002FB0FD8E9EB300105F8D0E0C44877
:100B0400B201C0E00AEC4D4E4F78207B0070C2EA7F
:100B1400B53D0040BCC0E0120B9AD0F0D0E02001FB
:100B240004C4C0E0C4B201C0F0120823D0F0D5F070
:100B3400EB0208731206C10910530A775808E14CF6
:100B440008DD420A7B4F0A83440A834908F6430AB4
:100B5400895509BA460A18450984470C4F5008E5D7
:100B64002D08E92E090C2B08ED23090A200C382A3C
:100B740008A54800000904E53DB4FF03753D0612CD
:100B840007FFFC1207FFFD1207FFFE1207FFFF78A5
:100B94003302021A790AA2D5200314300509B910C8
:100BA400020404B9080104A2D5200602500104205D
:100BB40002689202B53C005034C0E07F2030031933
:100BC4007F30A20272067205500F120BF1C202C2EC
:100BD40006C205C2087F30800F300503E9C0E01269
:100BE400083A300503D0E0F9D0E0B53CCC30051725
:100BF4007F30B9100C12083A7F583004077F788090
:100C040003B9080312083A3002057F2D02083A7F1F
:100C1400202008F87F2B2006F322920280CF7F0049
:100C2400B4070050052433F8E6FF22286E756C6C77
:100C34002900D2011207FF3001F8C201783C30D5F7
:100C44000108F60208A52D504349581207FF240352
:100C5400B405004001E4900C4A9312082B743A1234
:0A0C6400082BD203753C04020A7746
:100C6E00E53930030104F823282427F822782430AC
:100C7E0003027827E475F0011206A102053660EC36
:100C8E00C53D7002153C14C53D200304FF021E4FE6
:100C9E00782474FFF5F00206B1FF021DF2E53A600A
:100CAE0006D53A037F002220030F121E05EF6008BF
:100CBE00053DE53D7002053C22782412069812058A
:100CCE0036FF60E97824E475F0011206A180DE1289
:100CDE000CB5EFC0E0120CA7D0E040F380A0D20319
:100CEE008002C2038B248A258926E4F53BF539F56B
:100CFE003CF53D753A00C202C200C201C204120C9C
:100D0E007BFF7005AF3B7E0022B42530120C7BFFBB
:100D1E0024D0B40A00500C75F00AC53AA4253AF551
:100D2E003A80E924CFB41A00EF5002C2E5020F89CF
:100D3E00D20180D8D20080D4D20480D0EF120CA77A
:100D4E005008120CDDEF600E80A9EFC0E0120CB55A
:100D5E00D0E06F609EEF6074120C8C80A7120CB501
:100D6E00EF6069E53A7007053A8003120CB5EF6043
:100D7E001420040E120C6EE475F0011206A1EF128F
:100D8E00057CD53AE62004040539053B80BA120CE1
:100D9E00ABEFC0E0120CA7D0E05004120C8CE4FFB5
:100DAE0020040E120C6EE475F0011206A1EF12056E
:100DBE007CEF70DA2004040539053B808BE53A6040
:100DCE0002053A120CDD120CABEF70C6300304E4D0
:100DDE00120C8CE53B6003020D127EFF7FFF22E5B5
:100DEE003A6002053A120CDDD206D205120CABEFB8
:100DFE0030060260D7C0E0120C8CD0E0AC3EAD3FA6
:100E0E00AE40AF4112124C8C3E8D3F8E408F415002
:100E1E0007120CB5C20580D4200410200502053B34
:080E2E00120C6E120698053942
:100E3600120659020D01D0E0809A7900800A7910D5
:100E4600800679088002790AD205E53A6002053AF9
:100E5600E9C0E0120CDDEF60DD120CB5BF2D04D247
:100E6600028003BF2B09120CDDEF60CA120CABD057
:100E7600E0B40A028033B40802802EBF3027700225
:100E86007408C205C0E0120CABD0E0BF7802800344
:100E9600BF5816053AD53A028007D53A04D20580DE
:100EA6000B741080197002740ABF000AEFF8E4FC94
:100EB600FDFEFF020F3CC0E0EF120C8CD0E0F9E41F
:100EC600FCFDFEFFE9C0E0ECC0E0EDC0E0EEC0E0F6
:100ED600EFC0E0120CABEFF8D0E0FFD0E0FED0E0C0
:100EE600FDD0E0FCD0F0E8604DB461004007B47B73
:100EF600005002C2E524D0503DFA24F6500724F9EA
:100F06005034240AFAEAB5F000502BCFA9F0A42FEA
:100F1600FF92D5E9C5F0CEA4A2D53EFE92D5E9C58D
:100F2600F0CDA4A2D53DFD92D5E9C5F0CCA4A2D5BD
:100F36003CFCC205808EE8C0E020042A2005080596
:100F46003B300203120624120C6E12069805392055
:100F5600000B20010DEE8FF01206058009120659CE
:100F66008004EF12057CD0E0120C8C020D012004E7
:100F760010120C6E1206980539E53C853DF01206F6
:100F86000580E81206C10DCB530E44580D424C0D98
:100F96003E420D1A480E484F0E4C440D6B430E4010
:100FA600490E4C550DED460DED450DED470D462A06
:070FB6000F744E00000D4A0C
:1001A100E9D2E7C933E833F892D5EDD2E7CD33ECA4
:0701B10033FC5002B2D5221D
:1001B800EC30E7100FBF000C0EBE00080DBD0004A8
:1001C8000BEB6014A2D5EB13FCED92E7FD2274FF54
:1001D800FCFDFEFF22E480F8A2D574FF13FC7D80AD
:0301E800E480EFC1
:1001EB00F920E72824F950037907E4F42402FB18DB
:1001FB00DBFDE624FB5014E9600DE4F618E604F68B
:0F020B00B40A08E4F6D9F57401F60A22C2D52226
:10021A00ED33EC3392D5FA602AB4FF33EDC2E77BB3
:10022A00FF60067A02793FE4227A02794820D504EF
:10023A007A027943224E614E002B494E46002D49DF
:10024A004E4600E47A08F608DAFC7B00740722E8D6
:10025A00C0E0ECC0E0EDC0E0EEC0E0EFC0E0EA755F
:10026A00F010A4CAABF075F04DA42BFBE435F0FCFA
:10027A00EA2410FAEB34C5FBEC34D9FCEDC2E7FFF3
:10028A0075F056A4F42411C5F0F434C58FF0A42AED
:10029A00E5F03BE43CF620E7141204F6D0E0FFD088
:1002AA00E0FED0E0FDD0E0FC1204188014F4041241
:1002BA0004F6D0E0FFD0E0FED0E0FDD0E0FC120072
:1002CA0026D0E0F8E6FAEDD2E7CD33EC332482FB10
:1002DA00E4C3CF33CFCE33CECD33CD33DBF37B077D
:1002EA0075F00A846004F6081B0AE5F0F6088FF038
:1002FA00740AA4FFACF08EF0740AA42CFEACF05081
:10030A00010C8DF0740AA42CFDE435F0F608DBDE4E
:03031A0074072243
:10123900C207C208C209C20AF9E4F542F543FCFD36
:10124900FEFFE91006EA20090CB42D04D209D322C5
:10125900B42B02D32224D0504794095041240A3098
:101269000A15F88543F0740AA42872E74051C5F0BD
:10127900704D85F043D322D208C0E0E4FBFA79200F
:101289007841120026ECF8EDF9EEFAEFFBD0E0FC1C
:10129900E41201361203243007B41542D322240A7A
:1012A900200A20B4FE0720071AD207D32224EB60B4
:1012B9000424E0700EA2099207D20AC209D322C3FC
:1012C9000201D6E4300A0BE543300902F404A2070F
:1012D90092093008EA254220D2E5A2E7920A500293
:1012E900F404B4260050D8CCC0E0EDC0E0EEC0E074
:1012F900EFC0E0EC1204F6D0E0FFD0E0FED0E0FD54
:10130900D0E0FC200A0512002680031204183009D7
:06131900031204B5C3221B
:10031D000201D6E86480F8E933E83360110460F037
:10032D00ED33EC337009E8FCE9FDEAFEEBFF220446
:10033D0060DED3EB9FEA9EE99DE8C2E78CF0C2F741
:10034D0095F0400CE8CCF8E9CDF9EACEFAEBCFFB0D
:10035D001201A185D0F05804700320D5B3E80470C4
:10036D00075002B2D50201E092D5EC0460F7E4CC5F
:10037D00C0E0C398F8603B94186008400DD0E0FBD6
:10038D000201B8E4FBFAC9FC8028E830E406E4C9B0
:10039D00FBE4CAFCE830E305E4C9CACBFCE854072A
:1003AD006010F8C3E913F9EA13FAEB13FBEC13FC35
:1003BD00D8F130F52FC3E49CFCEF9BFFEE9AFEEDD8
:1003CD0099FDD0E0FBEF4E4D4C701222DB03020184
:1003DD00DDEC2CFCEF33FFEE33FEED33FDED30E7BE
:1003ED00EB0201B8EF2BFFEE3AFEED39FDD0E0FB4D
:1003FD0050130BBB00030201E0ED13FDEE13FEEFF6
:08040D0013FFEC13FC0201B81F
:100415000201E0EC5D046005E8590470030201D6B1
:100425001201A1580460F6EC4860F2EC7004FDFE80
:10043500FF22C860DB2481C85009C39860025006BA
:100445000201DD9850CAF582E9294B4A7005AB8255
:100455000201CC75F0007C1A7880C3EF9BEE9AED13
:1004650099400DC3EF9BFFEE9AFEED99FDE842F032
:10047500DC23ACF0D0E0FFD0E0FED0E0FDAB822085
:10048500E7101BEB60BAEC2CFCEF33FFEE33FEED0F
:1004950033FD0201B8E803F830E705C0F075F00058
:1004A500EF2FFFEE33FEED33FD40B830E7C280AAF3
:1004B500ED33EC33600A047003BD8004ECB2E7FC55
:0104C5002214
:1004C6003F8000004120000042C80000447A00003E
:1004D600461C400047C35000497424004B189680C0
:1004E6004CBEBC205A0E1BCA6753C21C749DC5AEB7
:1004F600FB60065407601C2323120524EB54386066
:100506000912051012051F120026ECF8EDF9EEFA95
:10051600EFCB22EB12051F80F1543803241C900404
:10052600C6FE93FC0EEE93FD0EEE930ECE93FF22C7
:1014AD000217CFE493A3F8E493A34003F68001F26F
:1014BD0008DFF48029E493A3F85407240CC8C33340
:1014CD00C4540F4420C8834004F456800146F6DF0F
:1014DD00E4800B01020408102040809013EDE47E9F
:1014ED00019360BCA3FF543F30E509541FFEE49304
:1014FD00A360010ECF54C025E060A840B8E493A3CB
:10150D00FAE493A3F8E493A3C8C582C8CAC583CAF5
:10151D00F0A3C8C582C8CAC583CADFE9DEE780BEAD
:0114A000004B
:10053600BB010689828A83E0225002E722BBFE02C3
:09054600E32289828A83E49322F6
:10054F00BB010CE58229F582E5833AF583E0225061
:10055F0006E92582F8E622BBFE06E92582F8E222AB
:0D056F00E58229F582E5833AF583E49322C5
:10057C00BB010689828A83F0225002F722BBFE015E
:02058C00F32258
:10058E00F8BB010DE58229F582E5833AF583E8F0A3
:10059E00225006E92582C8F622BBFE05E92582C84F
:0205AE00F22237
:1005B000BC000BBE0029EF8DF084FFADF022E4CC2F
:1005C000F875F008EF2FFFEE33FEEC33FCEE9DECF8
:1005D000984005FCEE9DFE0FD5F0E9E4CEFD22ED3E
:1005E000F8F5F0EE8420D21CFEADF075F008EF2F88
:1005F000FFED33FD4007985006D5F0F222C398FD79
:050600000FD5F0EA2215
:10060500BB010A89828A83F0E5F0A3F0225006F740
:0F06150009A7F01922BBFE06F3E5F009F319223D
:10190500C2D5E830E70FB2D5E4C39BFBE49AFAE40D
:1019150099F9E498F8EC30E717B2D512193B12079C
:1019250055E4C39BFBE49AFAE499F9E498F880033B
:1019350012075530D50DE4C39FFFE49EFEE49DFDDF
:04194500E49CFC2200
:0E062400C3E49FFFE49EFEE49DFDE49CFC22E7
:10063200EB9FF5F0EA9E42F0E99D42F0EC6480C83F
:0606420064809845F022DF
:10064800EB9FF5F0EA9E42F0E99D42F0E89C45F008
:01065800227F
:10065900BB010789828A830207E75005E9F8020688
:0A0669008CBBFE05E9F80207F3223E
:0C067300E6FC08E6FD08E6FE08E6FF22B3
:0D067F00E6FB08E6F908E6FA08E6CBF822EB
:0C068C00ECF608EDF608EEF608EFF6229A
:09069800E6FB08E6FA08E6F92287
:1006A100FAE6FB0808E6F925F0F618E6CA3AF6225A
:1006B100FAE6FB0808E625F0F9F618E63AFAF6221A
:1006C100D083D082F8E4937012740193700DA3A3C8
:1006D10093F8740193F5828883E4737402936860DC
:0606E100EFA3A3A380DFDC
:0606E7008A838982E4739E
:101E0500100F0B121E26BF0D027F0A021E41AF08DE
:011E150022AA
:051E4F008F08D20F22F4
:101DF200EFC394094005EF940E4003BF2003D38044
:031E020001C322F7
:1006ED00EF4E6012EF60010EEDBB010B89828A8324
:1006FD00F0A3DFFCDEFA2289F05007F709DFFCA931
:0C070D00F022BBFEFCF309DFFCA9F02287
:1007190075F008758200EF2FFFEE33FECD33CDCC97
:1007290033CCC58233C5829BED9AEC99E58298401A
:100739000CF582EE9BFEED9AFDEC99FC0FD5F0D6F7
:10074900E4CEFBE4CDFAE4CCF9A88222B800C1B921
:100759000059BA002DEC8BF084CFCECDFCE5F0CB5F
:10076900F97818EF2FFFEE33FEED33FDEC33FCEB98
:1007790033FB10D703994004EB99FB0FD8E5E4F953
:10078900FA227818EF2FFFEE33FEED33FDEC33FC40
:10079900C933C910D7059BE99A4007EC9BFCE99A34
:1007A900F90FD8E0E4C9FAE4CCFB2275F010EF2F79
:1007B900FFEE33FEED33FDCC33CCC833C810D70779
:1007C9009BEC9AE899400AED9BFDEC9AFCE899F8B4
:0E07D9000FD5F0DAE4CDFBE4CCFAE4C8F92247
:0C07E700ECF0A3EDF0A3EEF0A3EFF02285
:0C07F300ECF208EDF208EEF208EFF22242
:0A1E26003098FDAF99C2987E0022AB
:00000001FF
