:0300000002001EDD
:0C001E00787FE4F6D8FD758120020065B3
:1003A9008808010001000100010088000A0A0A0A00
:0C03B9000A0A0A0A011400030B0B0C0DC9
:100463007812E6C3940A74809480401B1200AA7821
:1004730013EFF67811E66FFE5F18F6EFF45E78156A
:08048300F67813E67811F62269
:03001B000201B12E
:1001B100C0E0C0F0C083C082C0D075D000C000C014
:1001C10001C002C003C004C005C006C007780F0605
:1001D100781206780E06781406E65407F6E624002F
:1001E100F8E2FED39414748094807814E6FF4008FA
:1001F100EE24D4FDD20380072400F8E2FDC20312ED
:1002010002DCD007D006D005D004D003D002D00143
:0D021100D000D0D0D082D083D0F0D0E03229
:01054D00228B
:1004B20078087401F2E408F20804F2E408F208048D
:1004C200F2E408F20804F2E408F27BFE7A0079080A
:0304D20002012FF5
:10050E00780EE6C394647480948040097B007A0070
:06051E00790B12032B22F1
:10052400538EBF53890F758B18758DFCC28FD28E75
:05053400D2ABD2AF22A2
:1004D50012048B7B007A00790B1202861205241216
:0D04E50004631204B212054D12050E80F2E0
:1000AA00E4FFD2C4D2C2D2B520B00122C2C4D2C2A5
:1000BA00D2B520B0027F0720B1027F0620B2027FAC
:1000CA000520B3027F04D2C4D2C2D2B520B0037FC6
:1000DA000022D2C4C2C2D2B520B0027F0B20B10224
:1000EA007F0A20B20620B3037F592220B2027F0979
:1000FA0020B3027F08D2C4D2C2D2B520B0037F0097
:10010A0022D2C4D2C2C2B520B0027F0F20B1027F70
:10011A000E20B2027F0D20B3027F0CD2C4D2C2D20B
:04012A00B543B0EF3A
:01012E0022AE
:0D03C5008B10C0F9A4B0999282F88090FFCF
:1002DC007580FFE5A0541FFE4306E08EA0E5A054F8
:1002EC001FFEF5A0A8077401088002C333D8FCF5E3
:1002FC0080E5A0541FFE4306C08EA0E5A0541FF558
:10030C00A074102DF8E2F58030030353807FE5A034
:0E031C00541FFE4306E08EA0E5A0541FF5A07E
:01032A0022B0
:0C03D2000116000118FF0117000119FFBF
:10012F00E47816F690000112023725E0FF12021E46
:10013F004FFF90000212023725E025E04FFF90009D
:10014F000312023733333354F84FFF900004120277
:10015F0037C454F04FFF900005120237C43354E0F8
:10016F004FFF900006120237C4333354C04FFF9035
:10017F000007120237C433333354804FFF7816F61B
:10018F007818E66F601B7816E6FFF4F580E5A0544B
:10019F001FFE4306808EA0E5A0541FF5A07818A679
:0101AF000748
:0101B000222C
:100003007580FFE5A0541FFF4307808FA0E5A05430
:070013001FF5A0E47818F6C8
:01001A0022C3
:1003DF007817E63000054440F6800354BFF67817CF
:1003EF00E6FF78196660148F80E5A0541FFE430660
:0B03FF00A08EA0E5A0541FF5A0A607EB
:01040A0022CF
:10040B007817E63001054420F6800354DFF67817A1
:10041B00E6FF78196660148F80E5A0541FFE430633
:0B042B00A08EA0E5A0541FF5A0A607BE
:0104360022A3
:100437007817E63002054410F6800354EFF6781774
:10044700E6FF78196660148F80E5A0541FFE430607
:0B045700A08EA0E5A0541FF5A0A60792
:010462002277
:10048B007580FFE5A0541FFF4307808FA0E5A054A4
:10049B001FF5A0E4F580E5A0541FFF4307A08FA034
:0604AB00E5A0541FF5A0BE
:0104B1002228
:1004F200E4FEEEC3940874809480500FC297EF1309
:0B05020092A3EFC313FFD2970E80E717
:01050D0022CB
:10053900C29300C29700D293001204F2AF051204CD
:04054900F2C2932245
:10036C00E4FDC29300C29700D293001204F2E4FFA2
:10037C00EFC39408748094805011C297EDC313FDA1
:10038C0030A303430580D2970F80E5C29300C29738
:0C039C0000D29700C2A300D2A300AF055E
:0103A8002232
:060286008B088A09890AB9
:10028C00E4FD7F8E1205397D807F80120539E4FCF8
:10029C00ECC3940374809480502FEC25E0FFC3745E
:1002AC00849FFFAB08AA09A90A8C827583001202ED
:1002BC0037FE75F00A84C454F0FDEE75F00A84ED37
:1002CC0025F0FD1205390C80C77D807F8E02053923
:06032B008B088A09890A13
:10033100C2AFE4FCECC3940374809480502AEC2592
:10034100E0FFC374859FFF12036CEFC4540F75F077
:100351000AA4FEEF540F2EAB08AA09A90A8C8275D4
:0A03610083001202640C80CCD2AFBE
:01036B00226F
:10002A000204D5E493A3F8E493A34003F68001F213
:10003A0008DFF48029E493A3F85407240CC8C333D7
:10004A00C4540F4420C8834004F456800146F6DFA6
:10005A00E4800B01020408102040809003A9E47E8A
:10006A00019360BCA3FF543F30E509541FFEE4939B
:10007A00A360010ECF54C025E060A840B8E493A362
:10008A00FAE493A3F8E493A3C8C582C8CAC583CA8D
:10009A00F0A3C8C582C8CAC583CADFE9DEE780BE45
:0103DE00001E
:10021E00BB010689828A83E0225002E722BBFE02DE
:09022E00E32289828A83E4932211
:10023700BB010CE58229F582E5833AF583E022507C
:1002470006E92582F8E622BBFE06E92582F8E222C6
:0D025700E58229F582E5833AF583E49322E0
:10026400F8BB010DE58229F582E5833AF583E8F0D0
:10027400225006E92582C8F622BBFE05E92582C87C
:02028400F22264
:00000001FF
