:10019B000B213F065B4F666D7D077F6F00062CFEC4
:1001AB00FDFBF7EFDF06330102030405060132FE08
:0301BB00013D0003
:04020D008E088F09BF
:080211007F027EEFDEFEDFFC40
:0102190022C2
:1001DD0020B403753D0120B503753D0220B60375AE
:0B01ED003D0320B703753D04AF3D2229
:10009A00C2B0D2B1D2B2D2B320B403753D0120B5F9
:1000AA0003753D0220B603753D0320B703753D0471
:1000BA00D2B0C2B1D2B2D2B320B403753D0520B5D5
:1000CA0003753D0620B603753D0720B703753D0845
:1000DA00D2B0D2B1C2B2D2B320B403753D0920B5B1
:1000EA0003753D0A20B603753D0B20B703753D0C19
:1000FA00D2B0D2B1D2B2C2B320B403753D0D20B58D
:10010A0003753D0E20B603753D0F20B703753D10EC
:03011A00AF3D22D4
:1001BF00E4F580D2A6C2A6742C2FF8E6F580D2A75C
:0E01CF00C2A774212DF8E6F580D2A6C2A622A2
:1001F8005389F0438901758A18758CFCC28DD28C9D
:05020800D2A9D2AF22D3
:03000B000201618E
:10016100C0E0C0D075D000C000C004C005C0077594
:100171008A18758CFC053CE53C64067002F53C74FC
:1001810033253CF8E6FD7C00AF3C1201BFD007D01F
:0A01910005D004D000D0D0D0E03239
:10011D001201F812009A8F3BE53B653AFF553BF50E
:10012D0039E53BF45FF53E853B3A300016AF32784A
:10013D0001EF08800123D8FDF532F5907FF47E01A3
:10014D0012020DE53924FE60070470C7D20080C38A
:04015D00C20080BF9D
:0300000002000EED
:0C000E00787FE4F6D8FD758140020055B3
:10001A0002011DE493A3F8E493A34003F68001F2DE
:10002A0008DFF48029E493A3F85407240CC8C333E7
:10003A00C4540F4420C8834004F456800146F6DFB6
:10004A00E4800B010204081020408090019BE47EAA
:10005A00019360BCA3FF543F30E509541FFEE493AB
:10006A00A360010ECF54C025E060A840B8E493A372
:10007A00FAE493A3F8E493A3C8C582C8CAC583CA9D
:10008A00F0A3C8C582C8CAC583CADFE9DEE780BE55
:0101BE000040
:00000001FF
