:1002C100062B0A0A0A0A0A0A062500000000000095
:1002D1000846000000000000000003210D0D0D0381
:0A02E1004E000000043F030002007D
:10025500E53870677538011201E38F39E53965377F
:10026500FF5539F533E5375FF53E853937E52470B8
:100275004AAF33D3EF9400748094804021D3EF9438
:100285000A748094805017200214C3E543940374C4
:10029500809480500974212543F8A633D202E533B2
:1002A500640B7017300214C3E54394037480948083
:0C02B5005009C202744E2543F876012265
:1000C900E53245316003020156F531753201E52407
:1000D90014603B14605B24027073752B0C752C0A39
:1000E900752D0A85212E85222F85233030005EAF9C
:1000F900437E00C3EF9402748094805007742E25C8
:1001090043F8760AEF64024E704375300A22752B64
:100119000E752C0A752D0A752E0AE55175F00A849B
:1001290075F00A8485F02FE55175F00A8485F03061
:1001390022752B0F752C0A853F2D85402E85412F61
:0E014900854230300107742D253BF8760A22DE
:0100030022DA
:10036B005389F0438901758A18758CFCC28DD28C28
:05037B00D2A9D2AF225F
:03000B0002000EE2
:10000E00C0E0C0F0C083C082C0D075D000C000C0B8
:10001E0001C002C003C004C005C006C007758A181F
:10002E00758CFC0538E538640A7002F5380532E542
:10003E003270020531643245317004F531F5320506
:10004E003AE53A64067002F53A0536E5366408700C
:10005E0002F53A74462536F8E6FD7C00AF361203FB
:10006E000C742B253AF8E6FD7C007425253AF8E64B
:10007E00FB7A00AF3A12033C0535E53570020534C4
:10008E0064FA4534701AF534F535AF24FEEF700579
:10009E00A200B39200EF64024E7005A201B392016A
:1000AE00D007D006D005D004D003D002D001D000A6
:0B00BE00D0D0D082D083D0F0D0E03250
:0E03800012036B1202551200C912000380F521
:1001E300E4FFC2B0D2B1D2B2D2B320B4010F20B572
:1001F300027F0220B6027F0320B7027F04D2B0C27F
:10020300B1D2B2D2B320B4027F0520B5027F06205B
:10021300B6027F0720B7027F08D2B0D2B1C2B2D2F2
:10022300B320B4027F0920B5027F0A20B6027F0BF8
:1002330020B7027F0CD2B0D2B1D2B2C2B320B40283
:100243007F0D20B5027F0E20B6027F0F20B7027FFD
:01025300109A
:010254002287
:0602EB00011E00011FFFCF
:10030C00ED4C600FA8077401088002C333D8FC427F
:10031C001E800EA8077401088002C333D8FCF45267
:0F032C001EE51E651F6008E51EF4F590851E1F77
:01033B00229F
:1002F10010083F065B4F666D7D077F6F006D77408D
:0A03010039730618FEFDFBF7EFDF6D
:10033C00E4F580D2A6C2A674182FF8E6F580D2A7F1
:10034C00C2A7EB64014A700B74082DF8E64480F5E3
:0F035C0080800774082DF8E6F580D2A6C2A6228D
:03000000020157A3
:0C015700787FE4F6D8FD75815102019E0E
:10016300020380E493A3F8E493A34003F68001F22F
:1001730008DFF48029E493A3F85407240CC8C3339D
:10018300C4540F4420C8834004F456800146F6DF6C
:10019300E4800B01020408102040809002C1E47E39
:1001A300019360BCA3FF543F30E509541FFEE49361
:1001B300A360010ECF54C025E060A840B8E493A328
:1001C300FAE493A3F8E493A3C8C582C8CAC583CA53
:1001D300F0A3C8C582C8CAC583CADFE9DEE780BE0B
:01030B0000F1
:00000001FF
