:10043500062C0A0A0A0A0A0A06250000000000001E
:100445000847000000000000000003210D0D0D030A
:0F0455004F0000000352000000044003000200AB
:10000E00E53960030201EB7539011203C38F3AE53E
:10001E003A6538FF553AF534E5385FF53F853A389D
:10002E00AF247E00EF7052AD34D3ED940074809403
:10003E00804024D3ED940A74809480501AC3E54412
:10004E00940374809480500FE53414FD742125447C
:10005E00F8A605D2030544E534640B701C30031971
:10006E00200016D3E544940074809480400BC203A4
:10007E00D200744E2544F87601E534641060030214
:10008E0001BCEF4E60030201B9FDEDC39403748011
:10009E0094805014744F2DF8E6640170028D2B205D
:1000AE000003752B020D80E2E52B14602914604FBE
:1000BE0024026003020147E4F553852154C3E5226F
:1000CE0094057480948040710554E554640A7069F7
:1000DE00F55405538063852153852254C3E523943B
:1000EE00057480948040520554E554640A704AF5B4
:1000FE00540553E553640A7040F5530552803AE4B3
:10010E00F544C203C200F555C3E5559403748094BB
:10011E0080500B74522555F8E4F6055580EAE4FD3F
:10012E00EDC3940374809480500F744F2DF8E4F651
:10013E0074212DF8760D0D80E7E55375F00AA4FBBA
:10014E00AAF0E55275F064A42BFFE5F03AFEE554F3
:10015E007A002FF546EA3EF545C394004013D3E5E9
:10016E00469455E5459400500830030575240180EA
:10017E003DE4F544C203C200F555C3E5559403743E
:10018E00809480500B74522555F8E4F6055580EA9C
:10019E00E4FDEDC39403748094805012744F2DF8D7
:1001AE00E4F674212DF8760D0D80E7E4F524AF34D6
:1001BE007E00EF640C7016AD24FCED6401700575C5
:1001CE0024028009ED64024C7003752401EF640D66
:0D01DE004E700A053CE53C64027002F53CE1
:0101EB0022F1
:1002A700E53345326003020336F532753301E52441
:1002B70014604114605624027075752C0C752D0A54
:1002C700752E0A85212F854F28852230855029854F
:1002D700233130015AAF447E00C3EF9402748094F7
:1002E700805007742F2544F8760AEF64024E703F5A
:1002F70075310A22752C0E752D0A752E0A752F0A6F
:10030700E4F528F52985533085543122752C0F756E
:100317002D0A85402E85412F854230854331300295
:100327000E742E253CF8760A742F253CF8760A229F
:0100030022DA
:1004E4005389F0438901758A18758CFCC28DD28CAE
:0504F400D2A9D2AF22E5
:03000B000201EC03
:1001EC00C0E0C0F0C083C082C0D075D000C000C0D9
:1001FC0001C002C003C004C005C006C007758A1840
:10020C00758CFC0539E539640A7002F5390533E55E
:10021C003370020532643245327004F532F5330521
:10022C003BE53B64067002F53B0537E53764087027
:10023C0002F53774472537F8E6FD7C00AF3712041A
:10024C0085742C253BF8E6FD7C007425253BF8E6EF
:10025C00FB7A00AF3B1204B50536E5367002053566
:10026C0064FA4535701AF535F536AF24FEEF700596
:10027C00A201B39201EF64024E7005A202B3920286
:10028C00D007D006D005D004D003D002D001D000C6
:0B029C00D0D0D082D083D0F0D0E03270
:0E04F9001204E412000E1202A712000380F596
:1003C300E4FFC2B0D2B1D2B2D2B320B4010F20B590
:1003D300027F0220B6027F0320B7027F04D2B0C29D
:1003E300B1D2B2D2B320B4027F0520B5027F06207A
:1003F300B6027F0720B7027F08D2B0D2B1C2B2D211
:10040300B320B4027F0920B5027F0A20B6027F0B16
:1004130020B7027F0CD2B0D2B1D2B2C2B320B402A1
:100423007F0D20B5027F0E20B6027F0F20B7027F1B
:0104330010B8
:0104340022A5
:06046400011E00011FFF54
:10048500ED4C600FA8077401088002C333D8FC4205
:100495001E800EA8077401088002C333D8FCF452ED
:0F04A5001EE51E651F6008E51EF4F590851E1FFD
:0104B4002225
:10046A0010083F065B4F666D7D077F6F006D774012
:0A047A0039730618FEFDFBF7EFDFF3
:1004B500E4F580D2A6C2A674182FF8E6F580D2A777
:1004C500C2A7EB64014A700B74082DF8E64480F569
:0F04D50080800774082DF8E6F580D2A6C2A62213
:03000000020337C1
:0C033700787FE4F6D8FD75815502037E46
:100343000204F9E493A3F8E493A34003F68001F2D3
:1003530008DFF48029E493A3F85407240CC8C333BB
:10036300C4540F4420C8834004F456800146F6DF8A
:10037300E4800B0102040810204080900435E47EE1
:10038300019360BCA3FF543F30E509541FFEE4937F
:10039300A360010ECF54C025E060A840B8E493A346
:1003A300FAE493A3F8E493A3C8C582C8CAC583CA71
:1003B300F0A3C8C582C8CAC583CADFE9DEE780BE29
:010484000077
:00000001FF
