:1001950008290A0A0A0A0A0A0A0A082100000000B0
:0E01A50000000000083A00000000000000000A
:10034F00E535701A7535011201228F36E5346536A1
:0F035F00FF5536F533E536F45FF5398536342230
:10025200E5324531702FF5317532017F431202E3E9
:100262008F38E53875F0648475F00A8485F02EE5E0
:100272003875F00A8475F00A8485F02FE53875F038
:060282000A8485F0302221
:0A042000E4FF12032CE4FF020309BD
:1003D300538E7F5389F0758A18758CFCC28DD28C2D
:0503E300D2A9D2AF22F7
:03000B0002009A56
:10009A00C0E0C0F0C083C082C0D075D000C000C02C
:1000AA0001C002C003C004C005C006C0070535E58B
:1000BA0035640A7002F5350532E53270020531FF02
:1000CA00AE31BE0109BFF40675310075320005373D
:1000DA00E53764087002F53774292537F8E6FD7CA0
:1000EA000074212537F8E6FB7A00AF37120218743C
:1000FA003A2537F8E6FD7C00AF371201DDD007D08C
:10010A0006D005D004D003D002D001D000D0D0D080
:08011A0082D083D0F0D0E03266
:1003E80012036E1203D312034F120252120420801A
:0103F800F50F
:04040800D2A07F05FA
:08040C0000AE071FEE70F9229B
:0F03F900D2A1120408C2A17F0512040CC2A022D7
:0C041400C2A1120408D2A17F0502040C52
:1003A600C2A0A20092A17F0512040C120408C2A0EA
:0703B600D2A17F0502040C37
:0A038B00AB071203F97F90120288FD
:10039500120408A2A19200C2A07F0512040CA200BB
:0103A5002235
:02028800AD07C0
:10028A00E4FCECC39408748094805024C2A07F05D7
:10029A0012040CED30E704D2A18002C2A17F05123C
:1002AA00040CD2A0ED25E0FD7F0512040C0C80D2CF
:0202BA00C2A0E0
:0102BC00221F
:1002BD00E4FCECC39408748094805017120408ED8C
:1002CD0025E0FD30A103430501C2A07F0512040CFA
:0502DD000C80DFAF05FD
:0102E20022F9
:1002E30012038BAF031202881203951203F97F9155
:1002F3001202881203951202BDAD07D2001203A6A3
:05030300120414AF0517
:0103080022D2
:1003BD0012038B7F41120288120395AF031202883C
:0603CD0012039502041466
:10036E007580FFE5A0541F4480F5A053A01FE4F54F
:0D037E0080E5A0541F44A0F5A053A01F224D
:10012200E4FFC2C4D2C2D2B5D2B420B3027F04204B
:10013200B2027F0520B1027F0620B0027F07D2C43F
:10014200C2C2D2B5D2B420B3027F0820B2027F0964
:1001520020B1027F0A20B0027F0BD2C4D2C2C2B544
:10016200D2B420B3027F0C20B2027F0D20B1027FF5
:100172000E20B0027F0FD2C4D2C2D2B5C2B420B315
:10018200027F1020B2027F1120B1027F1220B00242
:020192007F13D9
:010194002248
:1001B3000142000143FF0144000145FF01460001E4
:0201C30047FFF4
:1001DD00ED4C600FA8077401088002C333D8FC42B0
:1001ED0042800EA8077401088002C333D8FCF45274
:1001FD0042E54265436013E542F4F580E5A0541FE6
:0A020D004480F5A053A01F85424372
:0102170022C4
:10030900EF600543444080035344BFE544654560BD
:1003190011854480E5A0541F44A0F5A053A01F8572
:02032900444549
:01032B0022AF
:10032C00EF600543461080035346EFE54665476092
:10033C0011854680E5A0541F44A0F5A053A01F854D
:02034C00464722
:01034E00228C
:1001C5000B08C0F9A4B0999282F88090FF0813013A
:0701D5000204081020408025
:100218007580FFE5A0541F44E0F5A053A01F741398
:100228002FF8E6F580E5A0541F44C0F5A053A01FA1
:1002380074082DF8E6F580EB4A600353807FE5A04B
:0A024800541F44E0F5A053A01F224C
:0300000002000EED
:0C000E00787FE4F6D8FD758147020055AC
:10001A000203E8E493A3F8E493A34003F68001F211
:10002A0008DFF48029E493A3F85407240CC8C333E7
:10003A00C4540F4420C8834004F456800146F6DFB6
:10004A00E4800B0102040810204080900195E47EB0
:10005A00019360BCA3FF543F30E509541FFEE493AB
:10006A00A360010ECF54C025E060A840B8E493A372
:10007A00FAE493A3F8E493A3C8C582C8CAC583CA9D
:10008A00F0A3C8C582C8CAC583CADFE9DEE780BE55
:0101DC000022
:00000001FF
