:1003610008290A0A0A0A0A0A0A0A082100000000E2
:1003710000000000083E0000000000000000023CF8
:0203810000C8B2
:1003AF00E53570467535011202998F36E53465369D
:1003BF00FF5536F533E536F45FF53B853634E533D7
:1003CF0024FB601514601814601B2403701C053A7D
:1003DF00E53A64027014F53A22A200B3920022A209
:0B03EF0001B3920122A202B39202228D
:10000E00E532453160030200EEF5317532017F4372
:10001E001204CAEF75F064A4FFAEF07C007D3312BB
:10002E00030C8E388F39E53D75F033A4FF1205852C
:10003E00200008753C00753DC8800685383C853922
:10004E003D20027BE53A14603A0460030200EE752F
:10005E00290BAE38AF397C007D6412030C7C007D19
:10006E000A12030C8D2E752601AE38AF397C007D39
:10007E000A12030C7C007D0A12030C8D2FAE38AFD2
:10008E0039803275290CAE3CAF3D7C007D64120385
:10009E000C7C007D0A12030C8D2E752601AE3CAF32
:1000AE003D7C007D0A12030C7C007D0A12030C8D30
:0F00BE002FAE3CAF3D7C007D0A12030C8D30222B
:1000CD00E4F51DF51EAF1E74292FF8760A74212F45
:1000DD00F8E4F6051EE51E7002051D6408451D7049
:0100ED00E42E
:0100EE0022EF
:1000EF00E4FF120513E4FF1204F030016EAF3A7E05
:1000FF0000EF7005753E01F53FEF64014E7005F599
:10010F003E753F01C3E5399496E53894005003E4FA
:10011F00F540C3E5399496E5389400400DE53994E0
:10012F00FAE53894005003754001C3E53994FAE5B8
:10013F00389400400DE539945EE53894015003E49E
:10014F00F540C3E539945EE53894014003754001ED
:0B015F00200004E4F54122754101225C
:10016A00E4F51DF51E743E251EF8E4F6051EE51E8F
:0A017A007002051D6408451D70EBBE
:010184002258
:10059B00538E7F5389F0758A18758CFCC28DD28C63
:0505AB00D2A9D2AF222D
:03000B00020211DD
:10021100C0E0C0F0C083C082C0D075D000C000C0B3
:1002210001C002C003C004C005C006C0070535E512
:1002310035640A7002F5350532E53270020531FF89
:10024100AE31BE0109BFF4067531007532000537C4
:10025100E53764087002F53774292537F8E6FD7C27
:100261000074212537F8E6FB7A00AF3712043574A4
:100271003E2537F8E6FD7C00AF371203FAD007D0F0
:1002810006D005D004D003D002D001D000D0D0D008
:0802910082D083D0F0D0E032EE
:1005B00012053612059B1203AF12000E1200EF80D7
:0105C000F545
:0405D000D2A07F0531
:0805D40000AE071FEE70F922D2
:0F05C100D2A11205D0C2A17F051205D4C2A0227B
:0C05DC00C2A11205D0D2A17F050205D4F7
:10056E00C2A0A20392A17F051205D41205D0C2A08B
:07057E00D2A17F050205D4A4
:0A055300AB071205C17F9012046F80
:10055D001205D0A2A19203C2A07F051205D4A20359
:01056D00226B
:02046F00AD07D7
:10047100E4FCECC39408748094805024C2A07F05EE
:100481001205D4ED30E704D2A18002C2A17F05128A
:1004910005D4D2A0ED25E0FD7F051205D40C80D254
:0204A100C2A0F7
:0104A3002236
:1004A400E4FCECC394087480948050171205D0EDDA
:1004B40025E0FD30A103430501C2A07F051205D448
:0504C4000C80DFAF0514
:0104C9002210
:1004CA00120553AF0312046F12055D1205C17F9125
:1004DA0012046F12055D1204A4AD07D20312056E51
:0504EA001205DCAF0566
:0104EF0022EA
:100585001205537F4112046F12055DAF0312046F0C
:0605950012055D0205DC09
:100536007580FFE5A0541F4480F5A053A01FE4F585
:0D05460080E5A0541F44A0F5A053A01F2283
:10029900E4FFC2C4D2C2D2B5D2B420B3027F0420D3
:1002A900B2027F0520B1027F0620B0027F07D2C4C7
:1002B900C2C2D2B5D2B420B3027F0820B2027F09EC
:1002C90020B1027F0A20B0027F0BD2C4D2C2C2B5CC
:1002D900D2B420B3027F0C20B2027F0D20B1027F7D
:1002E9000E20B0027F0FD2C4D2C2D2B5C2B420B39D
:1002F900027F1020B2027F1120B1027F1220B002CA
:020309007F1360
:01030B0022CF
:100383000146000147FF0148000149FF014A0001FE
:020393004BFF1E
:1003FA00ED4C600FA8077401088002C333D8FC4291
:10040A0046800EA8077401088002C333D8FCF45250
:10041A0046E54665476013E546F4F580E5A0541FB6
:0A042A004480F5A053A01F8546474B
:0104340022A5
:1004F000EF600543484080035348BFE548654960C5
:1005000011854880E5A0541F44A0F5A053A01F8585
:02051000484958
:0105120022C6
:10051300EF6005434A108003534AEFE54A654B6099
:1005230011854A80E5A0541F44A0F5A053A01F8560
:020533004A4B31
:0105350022A3
:100395000D08C0F9A4B0999282F88090FFC18E082B
:0903A5001501020408102040803B
:100435007580FFE5A0541F44E0F5A053A01F741577
:100445002FF8E6F580E5A0541F44C0F5A053A01F82
:1004550074082DF8E6F580EB4A600353807FE5A02C
:0A046500541F44E0F5A053A01F222D
:0300000002018575
:0C018500787FE4F6D8FD75814B0201CCB8
:10030C00BC000BBE0029EF8DF084FFADF022E4CCD5
:10031C00F875F008EF2FFFEE33FEEC33FCEE9DEC9E
:10032C00984005FCEE9DFE0FD5F0E9E4CEFD22EDE4
:10033C00F8F5F0EE8420D21CFEADF075F008EF2F2E
:10034C00FFED33FD4007985006D5F0F222C398FD1F
:05035C000FD5F0EA22BC
:100191000205B0E493A3F8E493A34003F68001F2CF
:1001A10008DFF48029E493A3F85407240CC8C3336F
:1001B100C4540F4420C8834004F456800146F6DF3E
:1001C100E4800B0102040810204080900361E47E6A
:1001D100019360BCA3FF543F30E509541FFEE49333
:1001E100A360010ECF54C025E060A840B8E493A3FA
:1001F100FAE493A3F8E493A3C8C582C8CAC583CA25
:10020100F0A3C8C582C8CAC583CADFE9DEE780BEDC
:0103AE00004E
:00000001FF
