:10068800082D0A0A0A0A0A0A0A0A082500000000B0
:100698000000000008410000000000000000013DCB
:0406A8001E013C14DF
:1002E800E53960030203C07539011205C58F3AE587
:1002F80038653AFF553AF537E53AF45FF53F853A00
:1003080038E53724F36037146045146072147003BD
:100318000203B7240460030203C0053EE53E6402FD
:1003280060030203C0E53DD3953CE44005F53EF586
:100338002222F53E753D1E753C1475220122E53ECC
:10034800640170740521E5216402706CF52122E5D1
:100358003E64017063E52114601404705B053DC3BD
:10036800E53D944674809480404E753D4622053C98
:10037800C3E53C944674809480403D753C4622E534
:100388003E64017033E52114601404702B153DD3CD
:10039800E53D940A74809480501E753D0A22153CF0
:1003A800D3E53C940A74809480500D753C0A2275FC
:0903B8003C14753D1EE4F53E22E3
:1003C100E53645356003020482F5357536011207BD
:1003D100428F4D8E4C8D4B8C4AE53E146056046025
:1003E10003020482752D0B752E0A752F0A75300ACA
:1003F100AF4DAE4CAD4BAC4A1201F2EF75F00A8431
:1004010075F00A8485F031EF75F00A8485F0327554
:100411002A01E4FFFE7D207C41AB4DAA4CA94BA8EB
:100421004A12000E1201F27C007D0A1202858D3300
:1004310075340B22752D0C752E0A752F0AE53D7545
:10044100F00A84F530E53D75F00A8485F0317532A6
:100451000DE4F52AE53C75F00A84F533E53C75F0C9
:100461000A8485F034300019AF217E00EF700675E3
:10047100300A75310AEF64014E700675330A75341E
:020481000A224D
:10063800AF4DAE4CAD4BAC4A1201F2EFD3953D40F5
:10064800087549037541018003E4F541EFC3953C02
:1006580050087549097543018003E4F543EFD395C4
:100668003D500EEFC3953C40087549067542018020
:1006780003E4F542E522600475440122E4F54422CE
:10083100538E7F5389F0758A18758CFCC28DD28CCA
:05084100D2A9D2AF2294
:03000B0002048369
:10048300C0E0C0F0C083C082C0D075D000C000C03F
:1004930001C002C003C004C005C006C0070539E59A
:1004A30039640A7002F5390536E53670020535649C
:1004B3003245357004F535F536053BE53B64087088
:1004C30002F53B742D253BF8E6FD7C007425253BA6
:1004D300F8E6FB7A00AF3B120708E53E64017017AC
:1004E3000524E5247002052364FA45237009F523E6
:1004F300F524A200B392000540E540640A7002F5BA
:1005030040E540C39549500B7441253BF8E6FD7C1B
:10051300008003E4FDFCAF3B1206CDD007D006D02C
:1005230005D004D003D002D001D000D0D0D082D0E7
:0605330083D0F0D0E0329D
:0C0846007F237E337DB6DDFEDEFCDFFA92
:010852002283
:100804001207421208461207E71208311202E812D0
:0708140003C112063880F554
:1007E7007580FFE5A0541F4480F5A053A01FE4F5D2
:0D07F70080E5A0541F44A0F5A053A01F22D0
:1005C500E4FFC2C4D2C2D2B5D2B420B3027F0420A4
:1005D500B2027F0520B1027F0620B0027F07D2C498
:1005E500C2C2D2B5D2B420B3027F0820B2027F09BD
:1005F50020B1027F0A20B0027F0BD2C4D2C2C2B59D
:10060500D2B420B3027F0C20B2027F0D20B1027F4D
:100615000E20B0027F0FD2C4D2C2D2B5C2B420B36D
:10062500027F1020B2027F1120B1027F1220B0029A
:020635007F1331
:0106370022A0
:0606AC00011E00011FFF0A
:1006CD00ED4C600FA8077401088002C333D8FC42BB
:1006DD001E800EA8077401088002C333D8FCF452A3
:1006ED001EE51E651F6013E51EF4F580E5A0541F81
:0A06FD004480F5A053A01F851E1FC6
:0107070022CF
:04081B007F057E00D7
:10081F007C007D0C120273EF1FAC0670011E4C7032
:02082F00F622AF
:02077600AB07CF
:10077800E4FAEAC39408748094805012C294EB138C
:10078800929412081BD294EBC313FB0A80E47F05F2
:050798007E0002081FB5
:1007C400E4FAEAC39408748094805014C294EBC38E
:1007D40013FBD29430940343038012081B0A80E273
:0207E400AF0361
:0107E60022F0
:10079D00C201D2947F0C7E0012081FC2947F507E3E
:1007AD000012081FD2947F0A7E0012081FA2949295
:0607BD000112081BA2015D
:0107C3002213
:1007420012079D7FCC1207767F4412077612079D0F
:100752007FCC1207767FBE1207761207C4A9071252
:1007620007C4EFAD01FCEC1201B9E4FBFA79807821
:040772004102011728
:1006B2000E08C0F9A4B0999282F88090FFC68CBF50
:0A06C2000816010204081020408011
:100708007580FFE5A0541F44E0F5A053A01F7416A0
:100718002FF8E6F580E5A0541F44C0F5A053A01FAC
:1007280074082DF8E6F580EB4A600353807FE5A056
:0A073800541F44E0F5A053A01F2257
:10000E00EC4D6011E8497017ED33EC3304600DE4EC
:10001E00FCFFFEFD22E933E8330470F802025E12A3
:10002E00022958046009E4CC2481500628500902A4
:10003E000268284003020265C0E0EB4A7044B980B2
:10004E0006D0E0FB020254EF4E701CBD8008EBFFA1
:10005E00EAFEE9FD80EBE98DF0A4FEE5F00200F783
:10006E00E9CDF9EAFEEBFFEF89F0A4FCE5F0CE89CD
:10007E00F0A42EFFE435F0CD89F0A42DFEE435F08A
:10008E008067EF4E7005BD80D780C3EF8BF0A4ACB8
:10009E00F0EE8BF0A42CFCE435F0F8EF8AF0A42CF3
:1000AE00E5F038FCE433CB8DF0A42CFCE5F03BF806
:1000BE00EE8AF0A42CFCE5F038F8E433CF89F0A4F6
:1000CE002CFCE5F038CF3400CE89F0A42FFFE5F0FC
:1000DE003EFEE433C98DF0A42EFEE5F039CD8AF054
:1000EE00A42FFFE5F03EFEE43DFD33D0E0FB5007CC
:1000FE000BBB000F020268EC2CFCEF33FFEE33FE5D
:06010E00ED33FD0202408A
:10011400020268EC5D046005E85904700302025EA3
:10012400120229580460F6EC4860F2EC7004FDFEFB
:10013400FF22C860DB2481C85009C39860025006BE
:100144000202659850CAF582E9294B4A7005AB82D0
:1001540002025475F0007C1A7880C3EF9BEE9AED8E
:1001640099400DC3EF9BFFEE9AFEED99FDE842F036
:10017400DC23ACF0D0E0FFD0E0FED0E0FDAB822089
:10018400E7101BEB60BAEC2CFCEF33FFEE33FEED13
:1001940033FD020240E803F830E705C0F075F000D3
:1001A400EF2FFFEE33FEED33FD40B830E7C280AAF7
:1001B40075F020800E75F010800575F0087D007EC6
:1001C400007F003392D530D5031202DAEC334010AD
:1001D400EF33FFEE33FEED33FDEC33FCD5F0ED22CF
:0E01E400E5F0247EA2D513CC92E7CDCEFF220B
:1001F200EDD2E7CD33EC3392D524814006E4FFFE05
:10020200FDFC22FCE4CFCECDCC24E0501174FF8063
:10021200EDC3CC13CCCD13CDCE13CECF13CF047000
:07022200F030D5DE0202DA24
:10022900E9D2E7C933E833F892D5EDD2E7CD33EC1B
:0702390033FC5002B2D52294
:10024000EC30E7100FBF000C0EBE00080DBD00041F
:100250000BEB6014A2D5EB13FCED92E7FD2274FFCB
:10026000FCFDFEFF22E480F8A2D574FF13FC7D8024
:03027000E480EF38
:03000000020539BD
:0C053900787FE4F6D8FD75814D02058046
:10027300EF8DF0A4A8F0CF8CF0A428CE8DF0A42E9F
:02028300FE2259
:10028500BC000BBE0029EF8DF084FFADF022E4CC5D
:10029500F875F008EF2FFFEE33FEEC33FCEE9DEC26
:1002A500984005FCEE9DFE0FD5F0E9E4CEFD22ED6C
:1002B500F8F5F0EE8420D21CFEADF075F008EF2FB6
:1002C500FFED33FD4007985006D5F0F222C398FDA7
:0502D5000FD5F0EA2244
:0E02DA00C3E49FFFE49EFEE49DFDE49CFC2235
:10054500020804E493A3F8E493A34003F68001F2C0
:1005550008DFF48029E493A3F85407240CC8C333B7
:10056500C4540F4420C8834004F456800146F6DF86
:10057500E4800B0102040810204080900688E47E88
:10058500019360BCA3FF543F30E509541FFEE4937B
:10059500A360010ECF54C025E060A840B8E493A342
:1005A500FAE493A3F8E493A3C8C582C8CAC583CA6D
:1005B500F0A3C8C582C8CAC583CADFE9DEE780BE25
:0106CC00002D
:00000001FF
