:030000000203EB0D
:0C03EB00787FE4F6D8FD758167020432CB
:1005E60088080100010001000100880001020304DF
:1005F60005060708015E0001591E0158142037211F
:10060600FF08AE0000000100000000FF035B0000D1
:10061600000A00000000FF02C800000014000000ED
:1006260000FF00030000012C00000000FF08A400EA
:070636000000960000000027
:10035B0012083A785DEFF618E66FFE5FFD785AF6F5
:10036B00EFF45E7861F6785DE618F6ED24FB601429
:10037B0014601B14604324037065785B06E664020B
:10038B00705DF622786306E664027053F622785BA2
:10039B00E66401704A7863E6FF7E00700B785906BD
:1003AB00E66464703A766322EF64014E70317858DC
:1003BB0006E664647029766322785BE66401701F3D
:1003CB007863E6FF7E007009785916E6F47010F634
:1003DB0022EF64014E7008785816E6F47001F6228D
:1002C800785BE614604904600302035A7800740BF3
:1002D800F20814F208F208F208F208F2785FE6FA77
:1002E80008E6FB7C007D64FFAE021202297C007DDB
:1002F8000A1202297806EDF27C007D0AAF03AE02ED
:100308001202297C007D0A1202297807EDF2227870
:1003180000740CF208740AF208F27859E6FF75F0D6
:100328000A8475F00A847803E5F0F2EF75F00A8420
:1003380008E5F0F208740AF27858E6FF75F00A84C6
:1003480075F00A847806E5F0F2EF75F00A8408E59E
:03035800F0F2229E
:0108AE002227
:100003001206A2E4FBFA7920784112001E12016263
:08001300785FA60608A607228B
:0508A4007F9902080825
:10085100538EBF53890F758B18758DFCC28FD28E45
:05086100D2ABD2AF2272
:03001B000204F6E6
:1004F600C0E0C0F0C083C082C0D075D000C000C0CC
:1005060001C002C003C004C005C006C0077864125B
:10051600029DEF2401FFE43EFEE43DFDE43CFC7851
:10052600641202B6785E06E65407F6E62400F8E2A0
:10053600FED3941474809480785EE6FF4008EE241F
:10054600D4FDD20180072400F8E2FDC20112065351
:10055600D007D006D005D004D003D002D001D000F9
:0B056600D0D0D082D083D0F0D0E032A3
:0508A9007862760522D3
:0B057100E4F508E508C37862965069C5
:10057C00786412029D8F0C8E0B8D0A8C09E5087520
:10058C00F00BA42428F812029DE50875F00BA424A6
:10059C0024F81202A9EB2FFFEA3EFEE93DFDE83CF0
:1005AC00FCAB0CAA0BA90AA809C312028C4026AFFB
:1005BC000CAE0BAD0AAC09E50875F00BA42428F8B9
:1005CC001202B6E50875F00BA42421F808E6FA0827
:0505DC00E6F91202C265
:0405E1000508808FFA
:0105E50022F3
:0E088A001207121208A912085112057180FB04
:0407EE00D2A07F0511
:1007F200000000000000000000000000000000AE49
:06080200071FEE70EB225F
:0F087B00D2A11207EEC2A17F051207F2C2A0227E
:0C089800C2A11207EED2A17F050207F2F8
:0206DD00AD0767
:1006DF00E4FCECC39408748094805024C2A07F057E
:1006EF001207F2ED30E704D2A18002C2A17F0512FA
:1006FF0007F2D2A0ED25E0FD7F051207F20C80D2A4
:02070F00C2A086
:0107110022C5
:10078700E4FCECC394087480948050171207EEEDD4
:1007970025E0FD30A103430501C2A07F051207F242
:0507A7000C80DFAF052E
:0107AC00222A
:030866001206DD9A
:100869001207EEA2A1E433FDC2A07F051207F2AF81
:010879000579
:01087A00225B
:10082200C2A0EF24FF92A17F051207F21207EEC2C7
:08083200A0D2A17F050207F22C
:10080800AB0712087B7F901208667F41120866AF1B
:0A081800031206DD120869020898B9
:100712007580FFE5A0541FFF4307808FA0E5A0541A
:100722001FF5A0E4F580E5A0541FFF4307A08FA0AA
:06073200E5A0541FF5A034
:01073800229E
:10083A00E4FF20B0027F0720B1027F0620B2027FC8
:06084A000520B3027F044B
:010850002285
:06063D00010D00010EFF9B
:10047700E4780DF69000011201FC25E0FF1201E37C
:100487004FFF9000021201FC25E025E04FFF90008E
:10049700031201FC33333354F84FFF900004120169
:1004A700FCC454F04FFF9000051201FCC43354E024
:1004B7004FFF9000061201FCC4333354C04FFF9026
:1004C70000071201FCC433333354804FFF780DF615
:1004D70008E66F601918E6FFF4F580E5A0541FFEE3
:0E04E7004306808EA0E5A0541FF5A008A607CE
:0104F50022E4
:0407D0007F057E0023
:1007D400EF1FAA0670011E4A600FE4FDEDC3940CDE
:0907E4007480948050EA0D80F34A
:0107ED0022E9
:02073900A9070E
:10073B00E4FBEBC39408748094805012C294E913C9
:10074B0092941207D0D294E9C313F90B80E47F057E
:05075B007E000207D43E
:1007AD00E4FBEBC39408748094805014C294ECC3A2
:1007BD0013FCD2943094034304801207D00B80E2D3
:0207CD00AF0477
:0107CF002207
:10076000C200D2947F0C7E001207D4C2947F507EC8
:10077000001207D4D2947F0A7E001207D4A294926A
:06078000001207D0A200E8
:010786002250
:1006A2001207607FCC1207397F441207397FC87E58
:1006B200001207D41207607FCC1207397FBE1207DF
:1006C200391207ADA9071207ADEFAD01FCEC12011B
:0B06D20029E4FBFA7980783D02001E4D
:0F0643008D10C0F9A4B0999282F88090FFC68CF8
:100653007580FFE5A0541FFE4306E08EA0E5A0547D
:100663001FFEF5A0A8077401088002C333D8FCF568
:1006730080E5A0541FFE4306C08EA0E5A0541FF5DD
:10068300A074102DF8E2F58030010353807FE5A0BC
:0E069300541FFE4306E08EA0E5A0541FF5A004
:0106A1002236
:10001E00EC4D6011E8497017ED33EC3304600DE4DC
:10002E00FCFFFEFD22E933E8330470F80201CE1224
:10003E00019958046009E4CC248150062850090225
:10004E0001D82840030201D5C0E0EB4A7044B980C4
:10005E0006D0E0FB0201C4EF4E701CBD8008EBFF22
:10006E00EAFEE9FD80EBE98DF0A4FEE5F002010762
:10007E00E9CDF9EAFEEBFFEF89F0A4FCE5F0CE89BD
:10008E00F0A42EFFE435F0CD89F0A42DFEE435F07A
:10009E008067EF4E7005BD80D780C3EF8BF0A4ACA8
:1000AE00F0EE8BF0A42CFCE435F0F8EF8AF0A42CE3
:1000BE00E5F038FCE433CB8DF0A42CFCE5F03BF8F6
:1000CE00EE8AF0A42CFCE5F038F8E433CF89F0A4E6
:1000DE002CFCE5F038CF3400CE89F0A42FFFE5F0EC
:1000EE003EFEE433C98DF0A42EFEE5F039CD8AF044
:1000FE00A42FFFE5F03EFEE43DFD33D0E0FB5007BC
:10010E000BBB000F0201D8EC2CFCEF33FFEE33FEDD
:06011E00ED33FD0201B00B
:1001240075F020800E75F010800575F0087D007E56
:10013400007F003392D530D50312027EEC33401099
:10014400EF33FFEE33FEED33FDEC33FCD5F0ED225F
:0E015400E5F0247EA2D513CC92E7CDCEFF229B
:10016200EDD2E7CD33EC3392D524814006E4FFFE95
:10017200FDFC22FCE4CFCECDCC24E0501174FF80F4
:10018200EDC3CC13CCCD13CDCE13CECF13CF047091
:07019200F030D5DE02027E11
:10019900E9D2E7C933E833F892D5EDD2E7CD33ECAC
:0701A90033FC5002B2D52225
:1001B000EC30E7100FBF000C0EBE00080DBD0004B0
:1001C0000BEB6014A2D5EB13FCED92E7FD2274FF5C
:1001D000FCFDFEFF22E480F8A2D574FF13FC7D80B5
:0301E000E480EFC9
:1003F70002088AE493A3F8E493A34003F68001F28A
:1004070008DFF48029E493A3F85407240CC8C33306
:10041700C4540F4420C8834004F456800146F6DFD5
:10042700E4800B01020408102040809005E6E47E7A
:10043700019360BCA3FF543F30E509541FFEE493CA
:10044700A360010ECF54C025E060A840B8E493A391
:10045700FAE493A3F8E493A3C8C582C8CAC583CABC
:10046700F0A3C8C582C8CAC583CADFE9DEE780BE74
:0106520000A7
:1001E300BB010689828A83E0225002E722BBFE021A
:0901F300E32289828A83E493224D
:1001FC00BB010CE58229F582E5833AF583E02250B8
:10020C0006E92582F8E622BBFE06E92582F8E22201
:0D021C00E58229F582E5833AF583E493221B
:10022900BC000BBE0029EF8DF084FFADF022E4CCB9
:10023900F875F008EF2FFFEE33FEEC33FCEE9DEC82
:10024900984005FCEE9DFE0FD5F0E9E4CEFD22EDC8
:10025900F8F5F0EE8420D21CFEADF075F008EF2F12
:10026900FFED33FD4007985006D5F0F222C398FD03
:050279000FD5F0EA22A0
:0E027E00C3E49FFFE49EFEE49DFDE49CFC2291
:10028C00EB9FF5F0EA9E42F0E99D42F0E89C45F0C8
:01029C00223F
:0C029D00E6FC08E6FD08E6FE08E6FF228D
:0D02A900E6FB08E6F908E6FA08E6CBF822C5
:0C02B600ECF608EDF608EEF608EFF62274
:0602C2008A838982E473C7
:00000001FF
