:0300000002041ED9
:0C041E00787FE4F6D8FD75816C0204655F
:1005AD008808000000000000000088000B0A0A0AFD
:1005BD000A0A0A0A016300015A1E01591401611E3B
:1005CD00015F14203722FF06980000000100000093
:1005DD0000FF02C80000000A00000000FF038B00AE
:1005ED0000001400000000FF0888000003E8000070
:0D05FD000000FF074900000096000000000C
:1002C8001209497862EFF67860E66FFE5FFD785DA7
:1002D800F6EFF45E7866F67862E67860F6ED24FB71
:1002E800604514604C1460742403600302038A7828
:1002F8005E06E66402600302038A08E6FF7861E6A8
:10030800FEC39F785A400BA60618A607E47821F684
:10031800800DE67861F67859E6785FF6782106E48C
:100328007868F6785EF622786806E664027053F616
:1003380022785EE66401704A7868E6FF7E00700BFA
:10034800786106E66464703A766322EF64014E7061
:1003580031785F06E664647029766322785EE66425
:1003680001701F7868E6FF7E007009786116E6F470
:100378007010F622EF64014E7008785F16E6F4708C
:0303880001F62259
:10038B00785EE614604904600302041D7800740B68
:10039B00F20814F208F208F208F208F27864E6FAAE
:1003AB0008E6FB7C007D64FFAE021202297C007D17
:1003BB000A1202297806EDF27C007D0AAF03AE0229
:1003CB001202297C007D0A1202297807EDF22278AD
:1003DB0000740CF208740AF208F27861E6FF75F00B
:1003EB000A8475F00A847803E5F0F2EF75F00A845D
:1003FB0008E5F0F208740AF2785FE6FF75F00A84FC
:10040B0075F00A847806E5F0F2EF75F00A8408E5DA
:03041B00F0F222DA
:10069800785AE6FF7E0008E6FC08E6FDD39FEC9E4C
:1006A800400778087401F28004E47808F2D3ED9FDB
:1006B800EC9E50137859E6FFC3ED9FEC9400400779
:1006C80078097401F28004E47809F27859E6FFC3E6
:1006D800ED9FEC94005007780A7401F28004E478E6
:1006E8000AF27821E66006780B7401F222E4780BAE
:0206F800F222EC
:10088800120794E4FBFA7920784112001E120162E3
:100898007864EEF608EFF67C007D0A120229785B90
:0608A800A60608A60722C7
:10074900785AE6FFD3785CE69F18E6940040057F67
:10075900CC12092F785AE6FF08E6FC08E6FDD39F7C
:10076900EC940050117859E6FFC3ED9FEC940040DA
:10077900057F9912092F7859E6FFC3785CE69F181F
:0B078900E6940050057F6612092F2245
:10096000538EBF53890F758B18758DFCC28FD28E35
:05097000D2ABD2AF2262
:03001B000204AA32
:1004AA00C0E0C0F0C083C082C0D075D000C000C018
:1004BA0001C002C003C004C005C006C007786912A3
:1004CA00029DEF2401FFE43EFEE43DFDE43CFC789E
:1004DA00691202B6786306E65407F6E62400F8E2E3
:1004EA00FED39414748094807863E6FF4008EE2467
:1004FA00D4FDD20180072400F8E2FDC2011206FAF7
:10050A007BFE7A00790812052ED007D006D005D0D6
:10051A0004D003D002D001D000D0D0D082D083D072
:04052A00F0D0E032FB
:0509B3007867760522C3
:0B062300E4F508E508C378679650690D
:10062E00786912029D8F0C8E0B8D0A8C09E5087568
:10063E00F00BA42429F812029DE50875F00BA424F2
:10064E0025F81202A9EB2FFFEA3EFEE93DFDE83C3C
:10065E00FCAB0CAA0BA90AA809C312028C4026AF48
:10066E000CAE0BAD0AAC09E50875F00BA42429F805
:10067E001202B6E50875F00BA42422F808E6FA0873
:05068E00E6F91202C2B2
:040693000508808F47
:010697002240
:0E09990012083A1209B312096012062380FBFD
:04091500D2A07F05E8
:10091900000000000000000000000000000000AE20
:06092900071FEE70EB2237
:0F098A00D2A1120915C2A17F05120919C2A0221C
:0C09A700C2A1120915D2A17F0502091996
:0207D700AD076C
:1007D900E4FCECC39408748094805024C2A07F0583
:1007E900120919ED30E704D2A18002C2A17F0512D6
:1007F9000919D2A0ED25E0FD7F051209190C80D257
:02080900C2A08B
:01080B0022CA
:1008AE00E4FCECC39408748094805017120915ED83
:1008BE0025E0FD30A103430501C2A07F05120919F1
:0508CE000C80DFAF0506
:0108D3002202
:030975001207D78F
:10097800120915A2A1E433FDC2A07F05120919AF1F
:010988000569
:01098900224B
:10000300C2A0EF24FF92A17F05120919120915C29C
:08001300A0D2A17F050209192A
:10092F00AB0712098A7F901209757F41120975AFC3
:0A093F00031207D71209780209A776
:10083A007580FFE5A0541FFF4307808FA0E5A054F1
:10084A001FF5A0E4F580E5A0541FFF4307A08FA081
:06085A00E5A0541FF5A00B
:010860002275
:10094900E4FF20B0027F0720B1027F0620B2027FB8
:060959000520B3027F043B
:01095F002275
:06060A00010E00010FFFCC
:10052E00E4780EF69000011201FC25E0FF1201E3C3
:10053E004FFF9000021201FC25E025E04FFF9000D6
:10054E00031201FC33333354F84FFF9000041201B1
:10055E00FCC454F04FFF9000051201FCC43354E06C
:10056E004FFF9000061201FCC4333354C04FFF906E
:10057E0000071201FCC433333354804FFF780EF65C
:10058E0008E66F601918E6FFF4F580E5A0541FFE2B
:0E059E004306808EA0E5A0541FF5A008A60716
:0105AC00222C
:03061000010D00D9
:0408F7007F057E00FB
:1008FB00EF1FAA0670011E4A600FE4FDEDC3940CB6
:09090B007480948050EA0D80F321
:0109140022C0
:07080C007FCC1208137F44AA
:02081300A90733
:10081500E4FBEBC39408748094805012C294E913EE
:1008250092941208F7D294E9C313F90B80E47F057B
:050835007E000208FB3B
:1008D400E4FBEBC39408748094805014C294ECC37A
:1008E40013FCD2943094034304801208F70B80E283
:0208F400AF044F
:0108F60022DF
:10086100C200D2947F0C7E001208FBC2947F507E9E
:10087100001208FBD2947F0A7E001208FBA2949218
:06088100001208F7A200BE
:01088700224E
:10079400E50D700F12086112080C750D01E4FFFEDF
:1007A400FDFC221208617FCC1208137FBE120813CD
:1007B4001208D48F081208D4AC0712086112080C6E
:1007C400ECAD08FCEC120129E4FBFA7980783D12C7
:0207D400001E05
:0107D6002200
:0F0613008D10C0F9A4B0999282F88090FFC68C28
:1006FA007580FFE5A0541FFE4306E08EA0E5A054D6
:10070A001FFEF5A0A8077401088002C333D8FCF5C0
:10071A0080E5A0541FFE4306C08EA0E5A0541FF535
:10072A00A074102DF8E2F58030010353807FE5A014
:0E073A00541FFE4306E08EA0E5A0541FF5A05C
:01074800228E
:10001E00EC4D6011E8497017ED33EC3304600DE4DC
:10002E00FCFFFEFD22E933E8330470F80201CE1224
:10003E00019958046009E4CC248150062850090225
:10004E0001D82840030201D5C0E0EB4A7044B980C4
:10005E0006D0E0FB0201C4EF4E701CBD8008EBFF22
:10006E00EAFEE9FD80EBE98DF0A4FEE5F002010762
:10007E00E9CDF9EAFEEBFFEF89F0A4FCE5F0CE89BD
:10008E00F0A42EFFE435F0CD89F0A42DFEE435F07A
:10009E008067EF4E7005BD80D780C3EF8BF0A4ACA8
:1000AE00F0EE8BF0A42CFCE435F0F8EF8AF0A42CE3
:1000BE00E5F038FCE433CB8DF0A42CFCE5F03BF8F6
:1000CE00EE8AF0A42CFCE5F038F8E433CF89F0A4E6
:1000DE002CFCE5F038CF3400CE89F0A42FFFE5F0EC
:1000EE003EFEE433C98DF0A42EFEE5F039CD8AF044
:1000FE00A42FFFE5F03EFEE43DFD33D0E0FB5007BC
:10010E000BBB000F0201D8EC2CFCEF33FFEE33FEDD
:06011E00ED33FD0201B00B
:1001240075F020800E75F010800575F0087D007E56
:10013400007F003392D530D50312027EEC33401099
:10014400EF33FFEE33FEED33FDEC33FCD5F0ED225F
:0E015400E5F0247EA2D513CC92E7CDCEFF229B
:10016200EDD2E7CD33EC3392D524814006E4FFFE95
:10017200FDFC22FCE4CFCECDCC24E0501174FF80F4
:10018200EDC3CC13CCCD13CDCE13CECF13CF047091
:07019200F030D5DE02027E11
:10019900E9D2E7C933E833F892D5EDD2E7CD33ECAC
:0701A90033FC5002B2D52225
:1001B000EC30E7100FBF000C0EBE00080DBD0004B0
:1001C0000BEB6014A2D5EB13FCED92E7FD2274FF5C
:1001D000FCFDFEFF22E480F8A2D574FF13FC7D80B5
:0301E000E480EFC9
:10042A00020999E493A3F8E493A34003F68001F246
:10043A0008DFF48029E493A3F85407240CC8C333D3
:10044A00C4540F4420C8834004F456800146F6DFA2
:10045A00E4800B01020408102040809005ADE47E80
:10046A00019360BCA3FF543F30E509541FFEE49397
:10047A00A360010ECF54C025E060A840B8E493A35E
:10048A00FAE493A3F8E493A3C8C582C8CAC583CA89
:10049A00F0A3C8C582C8CAC583CADFE9DEE780BE41
:0106220000D7
:1001E300BB010689828A83E0225002E722BBFE021A
:0901F300E32289828A83E493224D
:1001FC00BB010CE58229F582E5833AF583E02250B8
:10020C0006E92582F8E622BBFE06E92582F8E22201
:0D021C00E58229F582E5833AF583E493221B
:10022900BC000BBE0029EF8DF084FFADF022E4CCB9
:10023900F875F008EF2FFFEE33FEEC33FCEE9DEC82
:10024900984005FCEE9DFE0FD5F0E9E4CEFD22EDC8
:10025900F8F5F0EE8420D21CFEADF075F008EF2F12
:10026900FFED33FD4007985006D5F0F222C398FD03
:050279000FD5F0EA22A0
:0E027E00C3E49FFFE49EFEE49DFDE49CFC2291
:10028C00EB9FF5F0EA9E42F0E99D42F0E89C45F0C8
:01029C00223F
:0C029D00E6FC08E6FD08E6FE08E6FF228D
:0D02A900E6FB08E6F908E6FA08E6CBF822C5
:0C02B600ECF608EDF608EEF608EFF62274
:0602C2008A838982E473C7
:00000001FF
