:1004EC0006460A0A0A0A0A0A062C00000000000046
:1004FC001232019001F4025802BC0320038403E879
:10050C00044C04B008210190019001900190086402
:0D051C00019001900190019003290B0C0D3E
:10013400E551600302024175510112047A8F54E5BE
:10014400546550FF5554F54EE5505FF55F855450A6
:10015400E54E24FC700302020214606714600C1460
:100164006003020241A202B392022230020302029D
:10017400410553E5536403701CF553C20185524590
:10018400E56325E02432F8E6FE08E6FFE54525E0D0
:10019400246402023BAF537E00EF64017006D20177
:1001A40085455222EF64024E6003020241D201E50A
:1001B4005225E02464F8E6FE08E6FFE55225E02433
:1001C400218074300177AF537E00EF6401700B051A
:1001D40052E55264047066F55222EF64024E705D7B
:1001E4000563E56364097002F563E56325E0243281
:1001F400F8E6FE08E6FFE55225E0242180393001C7
:100204003CAF537E00EF6401700B1552E552F4705D
:100214002C75520322EF64024E70221563E563F4D9
:100224007003756308E56325E02432F8E6FE08E60A
:0E023400FFE55225E02421F8A60608A60722C1
:10000E00E54D454C6003020133F54C754D01200161
:10001E007BA202332429F8E6F546E54504F547E5CB
:10002E004525E02464F8E6FE08E6FF7C037DE81231
:10003E000548EF4E700575480A80028F48E5452544
:10004E00E02464F8E6FA08E6FB7C007D64FFAE026D
:10005E001205487C007D0A1205488D497C007D649E
:10006E00AF03AE021205487E007F0ACFCDCFCECCB5
:10007E00CE1205488F4AE54525E02464F8E6FE08D1
:10008E00E6FF7C007D0A1205488D4B22852B46E546
:10009E005204F547E55225E02421F8E6FE08E6FF76
:1000AE007C037DE8120548EF4E700575480A800204
:1000BE008F48E55225E02421F8E6FA08E6FB7C009D
:1000CE007D64FFAE021205487C007D0A1205488D44
:1000DE00497C007D64AF03AE021205487E007F0AA4
:1000EE00CFCDCFCECCCE1205488F4AE55225E02497
:1000FE0021F8E6FE08E6FF7C007D0A1205488D4BCE
:10010E00300022AF537E00EF6401700775460A750A
:10011E00470A22EF64024E700C75480A75490A753B
:06012E004A0A754B0A228B
:10024200E54525E02464F8E6FE08E6656D7003E501
:100252006C6E6003020348F56CF56DE54514603B76
:10026200146061147003020309240360030203484B
:10027200E54F64087002F54FE4FDFCAF4412059DA2
:100282007D017C00AF4F12059D854F44054FE5442B
:1002920064076003020348754501221560E560F4B6
:1002A2007003756007E4FDFCAF5812059D7D017C6B
:1002B20000AF6012059D856058E55860030203484F
:1002C20075450222E56164047002F561C374079505
:1002D20061F55BE4FDFCAF5612059DE4FDFCAF59F0
:1002E20012059D7D017C00AF5B12059D7D017C00A6
:1002F200AF6112059D856159855B560561E55964BB
:10030200037043754503221562E562F4700375625A
:1003120003C374079562F55CE4FDFCAF5712059DBB
:10032200E4FDFCAF5A12059D7D017C00AF5C120515
:100332009D7D017C00AF6212059D85625A855C57E6
:07034200E55A7002F54522A7
:1005FC005389F0438901758A18758CFCC28DD28C95
:05060C00D2A9D2AF22CB
:03000B00020349A4
:10034900C0E0C0F0C083C082C0D075D000C000C07A
:1003590001C002C003C004C005C006C007758A18E1
:10036900758CFC0551E551640A7002F551054DE59E
:100379004D7002054C6432454C7004F54CF54D0541
:1003890055E55564067002F55574462555F8E6FDA0
:100399007C00742C2555F8E6FB7A00AF551205CD83
:1003A900300208056DE56D7002056C30011C055EB3
:1003B900E55E7002055DFFAE5DBE010EBF900B7577
:1003C9005D00755E00A200B39200D007D006D0058B
:1003D900D004D003D002D001D000D0D0D082D083B5
:0503E900D0F0D0E0326D
:0E0611001205FC12013412000E12024280F596
:10047A00E4FFC2B0D2B1D2B2D2B320B4010F20B5D8
:10048A00027F0220B6027F0320B7027F04D2B0C2E5
:10049A00B1D2B2D2B320B4027F0520B5027F0620C2
:1004AA00B6027F0720B7027F08D2B0D2B1C2B2D259
:1004BA00B320B4027F0920B5027F0A20B6027F0B5F
:1004CA0020B7027F0CD2B0D2B1D2B2C2B320B402EA
:1004DA007F0D20B5027F0E20B6027F0F20B7027F64
:0104EA001001
:0104EB0022EE
:06052900011C00011DFF92
:10059D00ED4C600FA8077401088002C333D8FC42EC
:1005AD001C800EA8077401088002C333D8FCF452D6
:0F05BD001CE51C651D6008E51CF4F590851C1DF0
:0105CC00220C
:10052F000E083F065B4F666D7D077F6F006D77404E
:08053F000616FEFDFBF7EFDFDD
:1005CD00E4F580D2A6C2A674162FF8E6F580D2A760
:1005DD00C2A7EB64014A700B74082DF8E64480F550
:0F05ED0080800774082DF8E6F580D2A6C2A622FA
:030000000203EE0A
:0C03EE00787FE4F6D8FD75816D020435BF
:10054800BC000BBE0029EF8DF084FFADF022E4CC97
:10055800F875F008EF2FFFEE33FEEC33FCEE9DEC60
:10056800984005FCEE9DFE0FD5F0E9E4CEFD22EDA6
:10057800F8F5F0EE8420D21CFEADF075F008EF2FF0
:10058800FFED33FD4007985006D5F0F222C398FDE1
:050598000FD5F0EA227E
:1003FA00020611E493A3F8E493A34003F68001F202
:10040A0008DFF48029E493A3F85407240CC8C33303
:10041A00C4540F4420C8834004F456800146F6DFD2
:10042A00E4800B01020408102040809004ECE47E72
:10043A00019360BCA3FF543F30E509541FFEE493C7
:10044A00A360010ECF54C025E060A840B8E493A38E
:10045A00FAE493A3F8E493A3C8C582C8CAC583CAB9
:10046A00F0A3C8C582C8CAC583CADFE9DEE780BE71
:0105470000B3
:00000001FF
