:1002990006460A0A0A0A0A0A062C0000000000009B
:1002A9001232019001F4025802BC0320038403E8CE
:1002B900044C04B008210190019001900190032998
:0302C9000B0C0D0E
:1002EB00E55170457551011202278F53E553655047
:1002FB00FF5553F54EE5505FF55C855350E54E24A5
:10030B00FC602614602314600914701DA201B392C3
:10031B000122300114A200B392000552E55264038E
:0A032B007007F552A200B392002201
:0C03B700E54D454C7005F54C754D0122DC
:10000E00E54525E02421F8E6FE08E665627003E585
:10001E00616E6003020114F561F562E54514603B03
:10002E001460611470030200D524036003020114EE
:10003E00E54F64087002F54FE4FDFCAF4412033542
:10004E007D017C00AF4F120335854F44054FE544CB
:10005E006407600302011475450122155DE55DF428
:10006E007003755D07E4FDFCAF571203357D017C0F
:10007E0000AF5D120335855D57E55760030201142D
:10008E0075450222E55E64047002F55EC374079541
:10009E005EF55AE4FDFCAF55120335E4FDFCAF5896
:1000AE001203357D017C00AF5A1203357D017C00B1
:1000BE00AF5E120335855E58855A55055EE5586468
:1000CE0003704375450322155FE55FF47003755F9A
:1000DE0003C37407955FF55BE4FDFCAF5612033561
:1000EE00E4FDFCAF591203357D017C00AF5B1203BA
:1000FE00357D017C00AF5F120335855F59855B56F8
:07010E00E5597002F54522DE
:100394005389F0438901758A18758CFCC28DD28CFF
:0503A400D2A9D2AF2236
:03000B000201A14E
:1001A100C0E0C0F0C083C082C0D075D000C000C024
:1001B10001C002C003C004C005C006C007758A188B
:1001C100758CFC0551E551640A7002F551054DE548
:1001D1004D7002054C6432454C7004F54CF54D05EB
:1001E10054E55464067002F55474462554F8E6FD4E
:1001F1007C00742C2554F8E6FB7A00AF5412036599
:100201003001080562E56270020561D007D006D0B1
:1002110005D004D003D002D001D000D0D0D082D0FC
:0602210083D0F0D0E032B2
:0E03A9001203941202EB1203B712000E80F53D
:10022700E4FFC2B0D2B1D2B2D2B320B4010F20B52D
:10023700027F0220B6027F0320B7027F04D2B0C23A
:10024700B1D2B2D2B320B4027F0520B5027F062017
:10025700B6027F0720B7027F08D2B0D2B1C2B2D2AE
:10026700B320B4027F0920B5027F0A20B6027F0BB4
:1002770020B7027F0CD2B0D2B1D2B2C2B320B4023F
:100287007F0D20B5027F0E20B6027F0F20B7027FB9
:010297001056
:010298002243
:0602CC00011C00011DFFF2
:10033500ED4C600FA8077401088002C333D8FC4256
:100345001C800EA8077401088002C333D8FCF45240
:0F0355001CE51C651D6008E51CF4F590851C1D5A
:010364002276
:1002D2000E083F065B4F666D7D077F6F006D7740AE
:0802E2000616FEFDFBF7EFDF3D
:10036500E4F580D2A6C2A674162FF8E6F580D2A7CA
:10037500C2A7EB64014A700B74082DF8E64480F5BA
:0F03850080800774082DF8E6F580D2A6C2A62264
:03000000020115E5
:0C011500787FE4F6D8FD75816202015C81
:100121000203A9E493A3F8E493A34003F68001F248
:1001310008DFF48029E493A3F85407240CC8C333DF
:10014100C4540F4420C8834004F456800146F6DFAE
:10015100E4800B0102040810204080900299E47EA3
:10016100019360BCA3FF543F30E509541FFEE493A3
:10017100A360010ECF54C025E060A840B8E493A36A
:10018100FAE493A3F8E493A3C8C582C8CAC583CA95
:10019100F0A3C8C582C8CAC583CADFE9DEE780BE4D
:0102EA000013
:00000001FF
