:10034C0006460A0A0A0A0A0A062C000000000000E7
:10035C001232019001F4025802BC0320038403E81A
:10036C00044C04B0082101900190019001900329E4
:03037C000B0C0D5A
:10039E00E55170457551011202278F53E553655093
:1003AE00FF5553F54EE5505FF55C855350E54E24F1
:1003BE00FC602614602314600914701DA201B39210
:1003CE000122300114A200B392000552E5526403DB
:0A03DE007007F552A200B39200224E
:10029900E54D454C7057F54C754D0120004FA201B5
:1002A900332429F8E6F546E54504F547E54525E013
:1002B9002421F8E6FA08E6FB7C007D64FFAE021211
:1002C90002F78F497C007D64AF03AE021202F7AAE0
:1002D90004AB057D0A7C00AF03AE021202F78F4A18
:0E02E9007D0A7C00AF03AE021202F78D4B229D
:10000E00E54525E02421F8E6FE08E665627003E585
:10001E00616E6003020114F561F562E54514603B03
:10002E001460611470030200D524036003020114EE
:10003E00E54F64087002F54FE4FDFCAF441203E88F
:10004E007D017C00AF4F1203E8854F44054FE54418
:10005E006407600302011475450122155DE55DF428
:10006E007003755D07E4FDFCAF571203E87D017C5C
:10007E0000AF5D1203E8855D57E55760030201147A
:10008E0075450222E55E64047002F55EC374079541
:10009E005EF55AE4FDFCAF551203E8E4FDFCAF58E3
:1000AE001203E87D017C00AF5A1203E87D017C004B
:1000BE00AF5E1203E8855E58855A55055EE55864B5
:1000CE0003704375450322155FE55FF47003755F9A
:1000DE0003C37407955FF55BE4FDFCAF561203E8AE
:1000EE00E4FDFCAF591203E87D017C00AF5B120307
:1000FE00E87D017C00AF5F1203E8855F59855B5692
:07010E00E5597002F54522DE
:100447005389F0438901758A18758CFCC28DD28C4B
:05045700D2A9D2AF2282
:03000B000201A14E
:1001A100C0E0C0F0C083C082C0D075D000C000C024
:1001B10001C002C003C004C005C006C007758A188B
:1001C100758CFC0551E551640A7002F551054DE548
:1001D1004D7002054C6432454C7004F54CF54D05EB
:1001E10054E55464067002F55474462554F8E6FD4E
:1001F1007C00742C2554F8E6FB7A00AF54120418E5
:100201003001080562E56270020561D007D006D0B1
:1002110005D004D003D002D001D000D0D0D082D0FC
:0602210083D0F0D0E032B2
:0E045C0012044712039E12029912000E80F540
:10022700E4FFC2B0D2B1D2B2D2B320B4010F20B52D
:10023700027F0220B6027F0320B7027F04D2B0C23A
:10024700B1D2B2D2B320B4027F0520B5027F062017
:10025700B6027F0720B7027F08D2B0D2B1C2B2D2AE
:10026700B320B4027F0920B5027F0A20B6027F0BB4
:1002770020B7027F0CD2B0D2B1D2B2C2B320B4023F
:100287007F0D20B5027F0E20B6027F0F20B7027FB9
:010297001056
:010298002243
:06037F00011C00011DFF3E
:1003E800ED4C600FA8077401088002C333D8FC42A3
:1003F8001C800EA8077401088002C333D8FCF4528D
:0F0408001CE51C651D6008E51CF4F590851C1DA6
:0104170022C2
:100385000E083F065B4F666D7D077F6F006D7740FA
:080395000616FEFDFBF7EFDF89
:10041800E4F580D2A6C2A674162FF8E6F580D2A716
:10042800C2A7EB64014A700B74082DF8E64480F506
:0F04380080800774082DF8E6F580D2A6C2A622B0
:03000000020115E5
:0C011500787FE4F6D8FD75816202015C81
:1002F700BC000BBE0029EF8DF084FFADF022E4CCEB
:10030700F875F008EF2FFFEE33FEEC33FCEE9DECB3
:10031700984005FCEE9DFE0FD5F0E9E4CEFD22EDF9
:10032700F8F5F0EE8420D21CFEADF075F008EF2F43
:10033700FFED33FD4007985006D5F0F222C398FD34
:050347000FD5F0EA22D1
:1001210002045CE493A3F8E493A34003F68001F294
:1001310008DFF48029E493A3F85407240CC8C333DF
:10014100C4540F4420C8834004F456800146F6DFAE
:10015100E4800B010204081020408090034CE47EEF
:10016100019360BCA3FF543F30E509541FFEE493A3
:10017100A360010ECF54C025E060A840B8E493A36A
:10018100FAE493A3F8E493A3C8C582C8CAC583CA95
:10019100F0A3C8C582C8CAC583CADFE9DEE780BE4D
:01039D00005F
:00000001FF
