:10029B0006450A0A0A0A0A0A062A0000000000009C
:1002AB00085300000000000000001230019001F420
:1002BB00025802BC0320038403E8044C04B0C18041
:0A02CB0008210190019001900190BC
:10035300E55070247550011202298F51E551654F04
:10036300FF5551F54DE54F5FF55B85514FE54D2445
:09037300F97005A200B39200220A
:0C039F00E54C454B7005F54B754C0122F8
:10000E00E54325E02421F8E6FE08E6655E7003E58B
:10001E005D6E6003020116F55DF55EE54314603B0F
:10002E001460611470030200D524036003020116EC
:10003E00E54E64087002F54EE4FDFCAF421202F488
:10004E007D017C00AF4E1202F4854E42054EE54214
:10005E006407600302011675430122154EE54EF446
:10006E007003754E07E4FDFCAF421202F47D017C75
:10007E0000AF4E1202F4854E42E5426003020116B5
:10008E0075430222E54E64047002F54EC374079563
:10009E004EF544E4FDFCAF291202F4E4FDFCAF4240
:1000AE001202F47D017C00AF441202F47D017C004B
:1000BE00AF4E1202F4854E42854429054EE5426448
:1000CE0003704575430322154EE54EF47003754ECD
:1000DE0003C37407954EF544E4FDFCAF291202F4F8
:1000EE00E4FDFCAF421202F47D017C00AF4412022B
:1000FE00F47D017C00AF4E1202F4854E42854429F8
:09010E00E54264037002F543228E
:10037C005389F0438901758A18758CFCC28DD28C17
:05038C00D2A9D2AF224E
:03000B000201A34C
:1001A300C0E0C0F0C083C082C0D075D000C000C022
:1001B30001C002C003C004C005C006C007758A1889
:1001C300758CFC0550E550640A7002F550054CE54A
:1001D3004C7002054B6432454B7004F54BF54C05EE
:1001E30052E55264067002F55274452552F8E6FD55
:1001F3007C00742A2552F8E6FB7A00AF52120324DE
:10020300300008055EE55E7002055DD007D006D0BC
:1002130005D004D003D002D001D000D0D0D082D0FA
:0602230083D0F0D0E032B0
:0E03910012037C12035312039F12000E80F51C
:10022900E4FFC2B0D2B1D2B2D2B320B4010F20B52B
:10023900027F0220B6027F0320B7027F04D2B0C238
:10024900B1D2B2D2B320B4027F0520B5027F062015
:10025900B6027F0720B7027F08D2B0D2B1C2B2D2AC
:10026900B320B4027F0920B5027F0A20B6027F0BB2
:1002790020B7027F0CD2B0D2B1D2B2C2B320B4023D
:100289007F0D20B5027F0E20B6027F0F20B7027FB7
:010299001054
:01029A002241
:0602D500011C00011DFFE9
:1002F400ED4C600FA8077401088002C333D8FC4298
:100304001C800EA8077401088002C333D8FCF45281
:0F0314001CE51C651D6008E51CF4F590851C1D9B
:0103230022B7
:1002DB000E083F065B4F666D7D077F6F006D7740A5
:0802EB000616FEFDFBF7EFDF34
:10032400E4F580D2A6C2A674162FF8E6F580D2A70B
:10033400C2A7EB64014A700B74082DF8E64480F5FB
:0F03440080800774082DF8E6F580D2A6C2A622A5
:03000000020117E3
:0C011700787FE4F6D8FD75815E02015E81
:10012300020391E493A3F8E493A34003F68001F25E
:1001330008DFF48029E493A3F85407240CC8C333DD
:10014300C4540F4420C8834004F456800146F6DFAC
:10015300E4800B010204081020408090029BE47E9F
:10016300019360BCA3FF543F30E509541FFEE493A1
:10017300A360010ECF54C025E060A840B8E493A368
:10018300FAE493A3F8E493A3C8C582C8CAC583CA93
:10019300F0A3C8C582C8CAC583CADFE9DEE780BE4B
:0102F300000A
:00000001FF
