:1003D50006460A0A0A0A0A0A062C0000000000005E
:1003E5001232019001F4025802BC0320038403E891
:1003F500044C04B00821019001900190019003295B
:030405000B0C0DD0
:10042700E551704575510112030E8F54E55465501F
:10043700FF5554F54EE5505FF55E855450E54E2463
:10044700FC602614602314600914701DA202B39285
:100457000222200214A201B392010553E55364035B
:0A0467007007F553A201B3920122C1
:10011500E54D454C60030201E4F54C754D012001A8
:1001250050A202332429F8E6F546E54504F547E5EE
:100135004525E02421F8E6FA08E6FB7C007D64FF0E
:10014500AE021203808F497C007D64AF03AE0212BC
:100155000380AA04AB057D0A7C00AF03AE0212033F
:10016500808F4A7D0A7C00AF03AE021203808D4B5F
:1001750022852B46854552E55204F547E55225E093
:100185002421F8E6FA08E6FB7C007D64FFAE021246
:1001950003808F497C007D64AF03AE02120380AA01
:1001A50004AB057D0A7C00AF03AE021203808F4AC3
:1001B5007D0A7C00AF03AE021203808D4B30001F19
:1001C500AF537E00EF6401700775460A75470A2232
:1001D500EF64024E700975490A754A0A754B0A2281
:10000E00E54525E02421F8E6FE08E665647003E583
:10001E00636E6003020114F563F564E54514603BFD
:10002E001460611470030200D524036003020114EE
:10003E00E54F64087002F54FE4FDFCAF4412047105
:10004E007D017C00AF4F120471854F44054FE5448E
:10005E006407600302011475450122155FE55FF424
:10006E007003755F07E4FDFCAF581204717D017CCF
:10007E0000AF5F120471855F58E5586003020114EA
:10008E0075450222E56064047002F560C37407953D
:10009E0060F55BE4FDFCAF56120471E4FDFCAF5954
:1000AE001204717D017C00AF5B1204717D017C0036
:1000BE00AF60120471856059855B560560E5596421
:1000CE00037043754503221561E561F47003756194
:1000DE0003C374079561F55CE4FDFCAF5712047120
:1000EE00E4FDFCAF5A1204717D017C00AF5C12047A
:1000FE00717D017C00AF6112047185615A855C5778
:07010E00E55A7002F54522DD
:1004D0005389F0438901758A18758CFCC28DD28CC2
:0504E000D2A9D2AF22F9
:03000B000201E50A
:1001E500C0E0C0F0C083C082C0D075D000C000C0E0
:1001F50001C002C003C004C005C006C007758A1847
:10020500758CFC0551E551640A7002F551054DE503
:100215004D7002054C6432454C7004F54CF54D05A6
:1002250055E55564067002F55574462555F8E6FD05
:100235007C00742C2555F8E6FB7A00AF551204A115
:100245003002080564E56470020563300114055D3C
:10025500AF5D7E00BE010BBF9008755D00A200B3C7
:100265009200D007D006D005D004D003D002D0012B
:0D027500D000D0D0D082D083D0F0D0E032C5
:0E04E5001204D012042712011512000E80F529
:10030E00E4FFC2B0D2B1D2B2D2B320B4010F20B545
:10031E00027F0220B6027F0320B7027F04D2B0C252
:10032E00B1D2B2D2B320B4027F0520B5027F06202F
:10033E00B6027F0720B7027F08D2B0D2B1C2B2D2C6
:10034E00B320B4027F0920B5027F0A20B6027F0BCC
:10035E0020B7027F0CD2B0D2B1D2B2C2B320B40257
:10036E007F0D20B5027F0E20B6027F0F20B7027FD1
:01037E00106E
:01037F00225B
:06040800011C00011DFFB4
:10047100ED4C600FA8077401088002C333D8FC4219
:100481001C800EA8077401088002C333D8FCF45203
:0F0491001CE51C651D6008E51CF4F590851C1D1D
:0104A0002239
:10040E000E083F065B4F666D7D077F6F006D774070
:08041E000616FEFDFBF7EFDFFF
:1004A100E4F580D2A6C2A674162FF8E6F580D2A78D
:1004B100C2A7EB64014A700B74082DF8E64480F57D
:0F04C10080800774082DF8E6F580D2A6C2A62227
:0300000002028277
:0C028200787FE4F6D8FD7581640202C9A3
:10038000BC000BBE0029EF8DF084FFADF022E4CC61
:10039000F875F008EF2FFFEE33FEEC33FCEE9DEC2A
:1003A000984005FCEE9DFE0FD5F0E9E4CEFD22ED70
:1003B000F8F5F0EE8420D21CFEADF075F008EF2FBA
:1003C000FFED33FD4007985006D5F0F222C398FDAB
:0503D0000FD5F0EA2248
:10028E000204E5E493A3F8E493A34003F68001F29D
:10029E0008DFF48029E493A3F85407240CC8C33371
:1002AE00C4540F4420C8834004F456800146F6DF40
:1002BE00E4800B01020408102040809003D5E47EF8
:1002CE00019360BCA3FF543F30E509541FFEE49335
:1002DE00A360010ECF54C025E060A840B8E493A3FC
:1002EE00FAE493A3F8E493A3C8C582C8CAC583CA27
:1002FE00F0A3C8C582C8CAC583CADFE9DEE780BEDF
:0104260000D5
:00000001FF
