:10018700060F0A0A0A0A0A0A060800000000000009
:0A019700081D000000000000000039
:10021F00E51A7019751A011201158F1BE51B651967
:0E022F00FF551BF517E5195FF525851B1922F4
:0C027D00E51645157005F51575160122F3
:10023D00E50E70180518E51864087002F518741DA0
:0D024D002518F8E6FD7C00AF181201C02254
:10025A005389F0438901758A18758CFCC28DD28C3A
:05026A00D2A9D2AF2271
:03000B0002009A56
:10009A00C0E0C0F0C083C082C0D075D000C000C02C
:1000AA0001C002C003C004C005C006C007758A1893
:1000BA00758CFC051AE51A640A7002F51A0516E52C
:1000CA001670020515643245157004F515F5160506
:1000DA001CE51C64067002F51C740F251CF8E6FD6D
:1000EA007C007408251CF8E6FB7A00AF1C1201F0AC
:1000FA00D007D006D005D004D003D002D001D0005A
:0B010A00D0D0D082D083D0F0D0E03203
:0E026F0012025A12021F12027D12023D80F589
:10011500E4FFC2B0D2B1D2B2D2B320B4010F20B540
:10012500027F0220B6027F0320B7027F04D2B0C24D
:10013500B1D2B2D2B320B4027F0520B5027F06202A
:10014500B6027F0720B7027F08D2B0D2B1C2B2D2C1
:10015500B320B4027F0920B5027F0A20B6027F0BC7
:1001650020B7027F0CD2B0D2B1D2B2C2B320B40252
:100175007F0D20B5027F0E20B6027F0F20B7027FCC
:010185001069
:010186002256
:0601A100013A00013BFFE2
:1001C000ED4C600FA8077401088002C333D8FC42CD
:1001D0003A800EA8077401088002C333D8FCF45299
:0F01E0003AE53A653B6008E53AF4F590853A3B1D
:0101EF0022ED
:1001A7000E263F065B4F666D7D077F6F006D7740BC
:0801B7000634FEFDFBF7EFDF4B
:1001F000E4F580D2A6C2A674342FF8E6F580D2A723
:10020000C2A7EB64014A700B74262DF8E64480F512
:0F02100080800774262DF8E6F580D2A6C2A622BC
:0300000002000EED
:0C000E00787FE4F6D8FD75813B020055B8
:10001A0002026FE493A3F8E493A34003F68001F28B
:10002A0008DFF48029E493A3F85407240CC8C333E7
:10003A00C4540F4420C8834004F456800146F6DFB6
:10004A00E4800B0102040810204080900187E47EBE
:10005A00019360BCA3FF543F30E509541FFEE493AB
:10006A00A360010ECF54C025E060A840B8E493A372
:10007A00FAE493A3F8E493A3C8C582C8CAC583CA9D
:10008A00F0A3C8C582C8CAC583CADFE9DEE780BE55
:0101BF00003F
:00000001FF
