:100124007580FFE5A0541F4480F5A053A01FE4F59B
:0D01340080E5A0541F44A0F5A053A01F2299
:10000000E4FFC2C4D2C2D2B5D2B420B3027F04206E
:10001000B2027F0520B1027F0620B0027F07D2C462
:10002000C2C2D2B5D2B420B3027F0820B2027F0987
:1000300020B1027F0A20B0027F0BD2C4D2C2C2B567
:10004000D2B420B3027F0C20B2027F0D20B1027F18
:100050000E20B0027F0FD2C4D2C2D2B5C2B420B338
:10006000027F1020B2027F1120B1027F1220B00265
:020070007F13FC
:01007200226B
:06007300013C00013DFF0D
:1000AF00ED4C600FA8077401088002C333D8FC42DF
:1000BF003C800EA8077401088002C333D8FCF452A9
:1000CF003CE53C653D6013E53CF4F580E5A0541F2D
:0A00DF004480F5A053A01F853C3DAE
:0100E90022F4
:100079000C28C0F9A4B0999282F88090FFBF083487
:08008900010204081020408070
:1000EA007580FFE5A0541F44E0F5A053A01F7434A7
:1000FA002FF8E6F580E5A0541F44C0F5A053A01FD1
:10010A0074282DF8E6F580EB4A600353807FE5A05A
:0A011A00541F44E0F5A053A01F227B
:1000910008100A0A0A0A0A0A0A0A080800000000E7
:0E00A100000000000820000000000000000029
:00000001FF
